:100000000C94F2070C94651B0C949B1B0C940F082A
:100010000C940F080C940F080C940F080C9485177F
:100020000C940F080C940F080C94FF180C940F08F4
:100030000C940F080C9486260C940F080C946226DE
:100040000C9422150C940F080C940F080C940F08B4
:100050000C940F0891369136C736B0369136F0368B
:10006000F036A536F036F036F036F036913692118D
:1000700074119C11AD1186116A116011C5176218B7
:100080007A1894188D18CD18D9189E18BF182618EC
:10009000301837185C18CD193A1A851A051A541AEF
:1000A0001E1AEC19951A010000000101000101025D
:1000B0000002000344454144424541460031313A83
:1000C00034393A3532004E5652414D206661756CD6
:1000D000740045524153453A205072657373205362
:1000E000504C004B4244206661756C74004C434494
:1000F00020434F4E540007000001014B00DC000676
:100100000000007A00BA284B45592042454550006E
:1001100007020005015000FA00130000007900BA40
:1001200028494620534849465400840201320100C0
:10013000007017150077000000BE28435720504973
:10014000544348000702000A012800BE00120000C4
:1001500000DD00BA284357205350454544000700AE
:1001600000010104003C00380000007E00BA28565F
:100170004942524F504C5800070000010100000551
:10018000003D0000006F02BA284B4559455220201F
:1001900020000600FC010100000300390000006E91
:1001A00002BA2843574B4559524556000700FF01F4
:1001B00001000001003C0000006D02BA28435757BF
:1001C000454947485400070100010117002D003A36
:1001D0000000007600BA2853504143455747480075
:1001E000070100010107000D003B0000007500BA87
:1001F00028425245414B2D494E000700FE010100A7
:100200000001002D0000007400BA28435720444527
:100210004C41590007020005010500A0002E000016
:10022000007300BA284D55544520414C4C0007003E
:10023000FF0101000001002C0000006C02BA2843FD
:1002400054435353202020000700FE010100000109
:1002500000360000006B02BA284354435353204633
:1002600051000701F9010100003F00350000007254
:1002700000BA28454E432044495653000700000168
:100280000101000800400000008100BA28424947EF
:100290002053544550000700FF0101000001003FBA
:1002A0000000006A02BA2843415420454E414200F2
:1002B0000700FE010100000100280000007100BAE3
:1002C000284341542053504420000700FD01010001
:1002D000000600290000007000BA28434154205253
:1002E000545320000700FF0101000001002A000014
:1002F000006902BA284341542044545220000700A8
:10030000FF0101000001002B0000006802BA285222
:100310004546204652455100090300010200002FC6
:100320007526006E000000B52853544159465245C9
:1003300051000700FE0102000001001400000067E8
:1003400002BA284241542043414C490007010001B0
:10035000022100FF0037000000DC00BA285357528A
:100360002043414C490007020001023200C800311D
:100370000000006D00BA28465744204C4F575200E9
:1003800007000001020100FF0333006B000000BA08
:10039000285057522043414C4900070000010200F9
:1003A00000FF00320000006A00BA2852585458205A
:1003B000444C59000700000502050064002F0000AE
:1003C000006900BA285458525820444C590007007C
:1003D00000050205006400300000006800BA2842F1
:1003E000464F3720555342000702010A060A0026ED
:1003F000751E00B0000000000042464F37204C53ED
:1004000042000702010A0A0A0026752000AE000019
:100410000000004841564520302E35000700FF01FE
:1004200002000001001A000000C300BA28434E5425
:100430005220302E35000702010A0A0A0026751BD9
:1004400000BE00000000004E464D204F46465300BF
:100450008402010A02000010272400D600000006D2
:100460001D5339204C4556454C0007000001020140
:1004700000FE00410000006700BA285339204445BF
:100480004C54410007000001020100FE0042000040
:10049000006600BA282B363044454C544100070012
:1004A0000001020100FE00430000006500BA28467A
:1004B0005245512046505300070000010205001923
:1004C00000090000008000BA28534D5452204650C5
:1004D00053000700000102050019000A0000006433
:1004E00000BA2842414E4420323700000700FF0185
:1004F00002000001000C0000006602BA2842414ED2
:100500004420424300000700FF0102000001000BED
:100510000000006502BA2842414E442035300000F8
:100520000700FE0102000001000D0000006300BA98
:100530002842414E4420373000000700FE010200EF
:100540000001000E0000006402BA2842414E44310E
:10055000343400000700FE0102000001000F00001B
:10056000006200BA28454E43205245530000070060
:10057000FA010200000900040000006100BA2845E9
:100580004E432044594E00000700FE0102000001C6
:1005900000050000006000BA280000000040004094
:1005A00040010501005B0101004000004000000027
:1005B0000100000105050064010100400040400009
:1005C00000000000000A140500460301004000403E
:1005D000400000000000001919A8FDC601030040FA
:1005E000004040000000000000010500005401012F
:1005F0000040004040000000000000010100001623
:10060000010100400040400000010100000105051B
:1006100000550101004000404000000000000001C2
:10062000050500640101004000404000000000009A
:10063000004657253034643B004B5925633B004B43
:1006400053253033643B005458253031643B00520D
:10065000583B0041492531643B00505325303164FB
:100660003B00534D30253034643B0052412530323D
:100670006430303B00504125303164303B00524DF6
:1006800031253034643B00524D32253034643B0018
:10069000524D33253034643B005054253032643B96
:1006A000004946253031316C6420202020202B3039
:1006B00030303030302030302531642531643030F6
:1006C000253164303030203B004625303264004113
:1006D000435300454C45004F464600425547004AAB
:1006E0000162016E017B018C01BC01DB01EC0100A8
:1006F000021202250238024C0276029E02B602CF96
:1007000002E80202031D033903560375039303B481
:1007100003CE03E8030B04300455047C04A404CE88
:1007200004F904260555058505B605EA051F063EAC
:1007300006560677068F06B106CA06ED0607072B92
:100740000746076B078807AE07CB07F30711083B7F
:10075000088508D108F30820097209C709ED0901C5
:1007600002040810203006081018192024404B6499
:100770004F6666004F6E20004E6F20005965730073
:100780000001010101000000000101000000000063
:1007900001010101010102030203010101013135DF
:1007A0002E00322E3700302E3500303132333435C2
:1007B00036373839414243444546003031323334CC
:1007C00035363738396162636465660000000101BF
:1007D000010101000000000000000000FA0000001C
:1007E00000E000E0000028FE28FE28002454FE540B
:1007F0004800C4C8102646006C926A040A00001023
:10080000E0C000000038448200000082443800004C
:1008100024187E18240010107C10100000010E0C0B
:100820000000101010101000000006060000040860
:10083000102040007C8A92A27C000042FE02000050
:1008400042868A9262008482A2D28C00182848FED6
:100850000800E4A2A2A29C007C9292924C00808E9E
:1008600090A0C0006C9292926C00649292927C0074
:1008700000002800000000022C00000000102844A6
:100880008200282828282800008244281000408060
:100890009A9060007C82BA9A72003E4888483E0076
:1008A000FE9292926C007C8282824400FE8282449C
:1008B0003800FE9292928200FE90909080007C829E
:1008C000828ACE00FE101010FE000082FE82000020
:1008D000040282FC8000FE1028448200FE02020214
:1008E0000200FE403840FE00FE201008FE007C8220
:1008F00082827C00FE90909060007C828A847A00E4
:10090000FE9098946200649292924C008080FE80E7
:100910008000FC020202FC00F8040204F800FC0261
:100920001C02FC00C6281028C600C0201E20C000E3
:10093000868A92A2C20000FE8282820040201008B5
:10094000040000828282FE002040804020000202DB
:1009500002020200008040200000042A2A2A1E0011
:10096000FE1422221C001C22222200001C22221221
:10097000FE001C2A2A2A180000107E90400018252C
:1009800025251E00FE1020201E000022BE020000B1
:10099000040202BC0000FE08142200000082FE02D5
:1009A00000003E201E201E003E1020201E001C22A3
:1009B00022221C003F2424241800182424183F005D
:1009C0003E1020201000122A2A2A04002020FC2297
:1009D00024003C0202043E003804020438003C02B9
:1009E0000C023C00221408142200320909093E00BE
:1009F00022262A32220000106C8200000000EE0045
:100A0000000000826C1000004080402040003C64E8
:100A1000C4643C001F3F7F706060707F3F1F000018
:100A2000FCFEFF07030307FFFEFC000000000C1C98
:100A30003C7F7F7F000000000000000707FFFFFFF2
:100A4000070700001C3C7C706060717F3F1F000046
:100A5000070F1F3F7FF7E7C7870700001838787038
:100A60006161717F3F1E00000C0E0F07C3C3C7FFFB
:100A7000FE7C000003070F1E3C787F7F7F00000094
:100A8000F0F0F0707070FFFFFF7000007F7F7F73E9
:100A900073737373710000008C8E8F87030387FF5D
:100AA000FEFC00001F3F7F71616171793818000002
:100AB000FCFEFFC78383C7FFFE7C00007070707070
:100AC0007071737F7F7C0000001F3F7FF0E0C0806B
:100AD000000000001E3F7F736161737F3F1E0000B6
:100AE0003C7EFFC78383C7FF7E3C00001F3F7F71B2
:100AF0006060717F3F1F00000C8ECFC7C3C3C7FF6C
:100B0000FEFC0000000000000000000000000000EB
:100B1000070707070707070707070000000000008F
:100B200000000000000000000000000000000000C5
:100B300000000000000000000000000000000000B5
:100B40000000000000000007070700000001030389
:100B5000030301000000FCFE87030387FEFC000086
:100B6000000000010303000000000000C0C3FFFFFD
:100B70000300000001030303030303010000C3C7D4
:100B80000F1F3B73E3C300000103030303030301CF
:100B90000000868703333333FFFE000000000001AE
:100BA0000303030000003C7CECCC8CFFFF0C000036
:100BB00003030303030303030000E6E763636363C4
:100BC0007F3E000001030303030303010000FEFF57
:100BD00033333333BF9E00000303030303030303D4
:100BE000000000070F1C3870E0C000000103030381
:100BF000030303010000FEFF33333333FFFE000025
:100C000001030303030303010000E6F73333333327
:100C1000FFFE0000000000000000000000000303D1
:100C200003030303030300000000000000000000B2
:100C3000000000000000000000000000BB00AB004E
:100C40009B008B00CC0052580054580020202020DC
:100C5000004C4F434B000000202020000001505268
:100C60004500000020202000010041545400004CA9
:100C70005000000001485000000000010200005533
:100C800053420001010100004C534200000003F4F4
:100C90000143572000010007F401435752000205A9
:100CA000FF000043575A000202050000414D20009A
:100CB0000204FF000044524D0001060900004447B1
:100CC0004C000206060000444755000203040000E1
:100CD0004E464D000007FF000049534200560000F9
:100CE00000422300010300082300010700692300DC
:100CF000010A00372300011300872300010001B916
:100D00001F010113022323000102040A230001082A
:100D1000044D1F020113044B23000100052D230085
:100D2000010305882404010905072300010C0509B6
:100D30002300010006AC2E03010007BA23000100C6
:100D400000F91001800001010E00800401FE0D0079
:100D50008010003723008031207C2032207C20331B
:100D60002030252020207C203130302520002031EB
:100D70002033203520372039202B203230203430CA
:100D8000203630200000CA9A3B00E1F50580969895
:100D90000040420F00A086010010270000E8030079
:100DA00000640000000A00000001000000101B02A7
:100DB00000707C0400E86E03006504B8DB07009057
:100DC000CF180000F915006504B8631B0018BF1E9A
:100DD00000509E1B000104482D350058363A00E0B3
:100DE000673500010460823B0000093D0060823BE2
:100DF000007504B07A4800A0354D00B07A480075FF
:100E000004D06E5700D80D6000D06E5700750410E6
:100E1000226900B0A86A0010226900750428956A4A
:100E20000098176E00C0CF6A00010400DD6D0080DD
:100E3000F7730000DD6D007504D0248D00E00F977E
:100E400000D0248D00750488E29900081B9B0020C7
:100E50001D9A008204E079AF00008CB900E079AF00
:100E6000007504D00FCF00B0A3D300D00FCF007512
:100E700004E864D5004831DB00809FD5000004F011
:100E800056E500C016F100F056E500750440B90AB9
:100E900001E021110140B90A017504887713015856
:100EA00073150120B21301800420642001E0382270
:100EB00001206420017504A8344001A8874701403F
:100EC0006F40010004104D470190674D01104D47E0
:100ED000017504F88F7B01C88B7D0190CA7B01806E
:100EE0000470B1870120418E0170B18701750470D3
:100EF000399B016065A20180D19D0150046804AB5B
:100F0000010021B001003FAB0102000021B00180CF
:100F10008EBD0120E0B2010000808EBD01386AC59F
:100F20000100A9C3010000E8B5FA02183438032013
:100F300077FC022004E8E22B04D0E02C04801D2C76
:100F4000043201D0E02C0460B13004D0E02C043035
:100F50000160B1300438F9330460B1300430016805
:100F60000995084051980850079608120240519878
:100F7000084086A408E0D79908100220E59C0818CC
:100F800003B4086027AC08100230750000C0E1E42B
:100F900000883F4C006004C0E1E40080FE210AC0EC
:100FA000EA210160043075000080FE210AF0446BE4
:100FB0000060043075000080FE210AF0446B006080
:100FC000044944253033643B004641253031316CBF
:100FD000643B004642253031316C643B004D442572
:100FE00031643B0011241FBECFE5D8E0DEBFCDBF8A
:100FF00012E0A0E6B0E0E6EBFDE702C005900D923E
:10100000A436B107D9F725E0A4E6B2E001C01D92ED
:10101000AC31B207E1F70E94CF310C94D93E0C9469
:1010200000002F923F924F925F926F927F928F9229
:101030009F92AF92BF92CF92DF92EF92FF920F9367
:101040001F93CF93DF93CDB7DEB76A970FB6F894AF
:10105000DEBF0FBECDBF082F6A8F742E842F0E9473
:10106000A329182F282F30E03D8B2C8BF901EE0F90
:10107000FF1FEE0FFF1FE158FB4F80819181A2817E
:10108000B3818D879E87AF87B88B80918A00882334
:1010900019F010928A0081E0802B909147039923E8
:1010A00019F01092470391E0982B81E02D853E8541
:1010B0004F855889203434454948510508F080E06F
:1010C00020914603281721F08093460381E001C058
:1010D00080E0092F082B6D857E858F8598890E9479
:1010E000D41C90918900891721F08093890091E0A8
:1010F00001C090E0902B80918800882319F0109215
:10110000880081E0982B998B809199038823B9F00E
:10111000992389F081E10E9418128CE00E94181234
:101120008AE00E941812772011F08DE001C08EE055
:101130000E94181208C08AE00E941812E2C489882E
:10114000882009F4DEC471100BC0809176048823D6
:1011500029F01092760481E0809368040E94A61E14
:10116000812F0E94F128D82E0E947D2A8C0129E02F
:10117000D29EF0011124E558F34F949081E0092CA0
:1011800001C0880F0A94EAF74CE3E42E4CE0F42EF9
:10119000F70120E0A591B59112969C9112979823A2
:1011A00021F018969C91911105C0243011F02F5F09
:1011B000F1CF20E0D0929C0490928502C92CD12CD2
:1011C000CC0CDD1C44E060E0C6018B5B9F4F0E94AD
:1011D000AD2D682F892D0E943B1D80939704F80147
:1011E0003796249140E060E0C6018C5B9F4F0E94DF
:1011F000AD2D8093860280916A02F801E80FF11DFF
:1012000084913AE0839FC0011124909399028093C6
:10121000980281E00E94A3290E94F1288A8B0E94F3
:10122000D628811103C000919C0401C004E0802FE6
:101230000E947D2A9C01909345038093440349E0DA
:10124000049FF0011124AF014658534FCA01019683
:10125000FC016490FA0194919170472D50E0598FF0
:10126000488FA62DB0E0BF8BAE8BFA01B2E16B9E2A
:10127000E00DF11D1124EA55FA4F849140918A0046
:10128000423031F451E0811150E059275B8B04C0AA
:10129000E1E0EB8B41111B8A11E0811110E051E07C
:1012A000411150E0952E99269126823009F4192D8E
:1012B00080914A04882351F07720B9F1F9013496DE
:1012C000849181FBAA24A0F8B12C04C0772069F195
:1012D000A12CB12C81E0062C01C0880F0A94EAF7FA
:1012E00060E0F70132967F013297A591B591119692
:1012F0009C911197982321F018969C91911105C00B
:10130000643011F06F5FEDCF60E0802F0E94581DB8
:101310009C878B87F4E06F1619F126E0822E681403
:1013200009F445C0611040C02CC060919704802F23
:101330000E94661D9C878B8782E12E893F89829F50
:10134000F001839FF00D1124EB55FA4F849185FF36
:101350000AC0E0917700F0917800E85BFB4005C09F
:10136000E0E0F0E007C0E0E0F0E024E0621228C036
:10137000A12CB12C90EE292E9EE2392E412C512C1D
:101380002AC0E0E0F0E0711017C004C0611012C084
:10139000A12CB12C2091DD0030E0AAE0B0E00E9449
:1013A000293C1B012C0117C0E0E0F0E005C0E0E0A3
:1013B000F0E00BC0A12CB12C212C312C21010BC051
:1013C00036E06312E3CFA12CB12C8DE4282E88E007
:1013D000382E412C512C112341F0509440943094DC
:1013E0002094211C311C411C511C2091DD0030E057
:1013F00040E050E0992029F066EF7FEF8FEF9FEFFC
:1014000004C06AE070E080E090E00E94133C6B83CF
:101410007C838D839E83AB85BC851C960D90BC918F
:10142000A02DB887AF83AB85BC851A962D913C91D2
:101430001B97AF81B88590964D915D916D917C9190
:101440009397420F531F611D711D48585341610905
:101450007109AB85BC8515968D919C911697139655
:101460000D911C911497009759F4DB01CA01800F6C
:10147000911FA11DB11D8824839468103AC031C00A
:1014800020E030E06C01E12CF12CD901C8018C0D79
:101490009D1DAE1DBF1DB695A79597958795840F89
:1014A000951FA61FB71F662031F088248394681407
:1014B00009F48EC31EC071101CC0911003C0D90165
:1014C000C80102C0D701C601840F951FA61FB71F10
:1014D0002B813C814D815E81820F931FA41FB51F1C
:1014E00008C02B813C814D815E81821B930BA40B34
:1014F000B50BAB2821F5992019F0F195E195F1098B
:10150000AF01FF0F660B770B841B950BA60BB70B78
:10151000992041F05094409430942094211C311C27
:10152000411C511C9C01AD01221933094409550984
:101530002B833C834D835E831C012D0104C01B82E1
:101540001C821D821E828F80988438E0739E800CDE
:10155000911C112480916E0090916F00A0E0B0E08A
:10156000885D9242AD4ABD4F9C01AD01550F220BE3
:10157000322FA9012F83388749875A87F401A08029
:10158000B180C280D380E480F580068117819C0100
:10159000AD016F81762F862F962F0E94523CD40189
:1015A0005096AC9050975196BC9051975296CC90D3
:1015B00052975396DC9053975496EC9054975596C7
:1015C000FC90559756960C91569757961C910E94F1
:1015D000AD3C49015A01D201C101880D991DAA1DD6
:1015E000BB1D8B88882039F0B095A095909581958A
:1015F0009F4FAF4FBF4F80933C0390933D03A09309
:101600003E03B0933F03711015C0EC89FD89E85685
:10161000FB4FE08126E0E29FF0011124EA5AF34FEC
:1016200085918093730481E09491911101C080E0D1
:101630008093720481E080936804AB85BC85179623
:101640008C918093740481E0B3E06B1280E080930E
:101650006D0460917900E4E66E9FB001112481E091
:101660000E94441E882321F0F8940E94111E789451
:1016700080917A0090917B00891771F080937B00B4
:1016800080E70E94161F81E80E94AF1E80917B00B8
:101690000E94AF1E0E94131F81E090919604911149
:1016A00001C080E080936C0481E080936804E09145
:1016B0004403F0914503349684918695817090910E
:1016C00075048913809375046091DD00F4E66F9FC3
:1016D000B001112482E00E94441E882321F0F89476
:1016E0000E94111E7894E0917200F0E0EE0FFF1F4F
:1016F000E152F94F6591759180E00E94441E882364
:1017000021F0F8940E94111E789480916B02882336
:1017100081F0772071F08A890E947D2A0496FC016D
:101720008491082E000C990B892F881F8827881F09
:1017300001C080E090916904891721F080936904C9
:101740000E94111E809182008E3119F08EE18093EB
:10175000820080916C0281110DC00E94D6288111F7
:1017600009C08A890E947D2A0496FC018491829591
:10177000817001C081E090916F04891729F08093F6
:101780006F0481E0809368040091680020916900F3
:1017900030E0A8ECB0E00E94293C6C507E4F8F4FA7
:1017A0009F4F28EEC22E23E0D22EE12CF12CA70170
:1017B00096010E94F13B122F202F30E0A8ECB0E000
:1017C0000E94293C6C507E4F8F4F9F4FA70196017E
:1017D0000E94F13B90917502911308C090917402A0
:1017E000291304C0909173022917B1F0F894109353
:1017F0007502209374022093730210925D0410927C
:101800005C0410925E04120F110F115020F080E062
:101810000E948F20FACF78948091440390914503E1
:10182000F8949C01285F3F4F3093860020938500F9
:101830000C9690938400809383007894E0919A04AE
:1018400026E0E29FF0011124E259F34F8491909138
:101850006E04891729F080936E0481E080936804F8
:101860008A890E947D2A0496FC01849183FB882743
:1018700080F9F89480936404789420917E0080919C
:101880003203281711F12093320330E0A8EEB3E0C1
:101890000E94293C2CE330E040E050E00E94F13B04
:1018A000CA01B9010E94351CEE24E3948E010F5F3A
:1018B0001F4F29E435E040E10E94C21B8F5F886022
:1018C0008EBD89819A819BBD8ABD80916F02F894FB
:1018D00090917704891720F410927904109278047B
:1018E0008093770478949091750080917600F894B5
:1018F000990F90933003880F80932F0378949091E1
:101900006D0280916E02F89490933103813049F01A
:1019100030F0823049F0833051F481E006C084E039
:1019200004C010927A0403C083E080937A04789410
:10193000A091730010917400F894FAE0AF9FD00169
:10194000112428EC30E00E94383C6C507E4F8F4FC1
:101950009F4F28EE33E040E050E00E94F13B30938F
:101960007702209376021093610478948091330378
:10197000813029F081E08093330380936804809163
:10198000710090917802891749F180937802811152
:1019900008C0F894579856981092000510920805C0
:1019A0001CC0ECEEF4E080E095E011928E179F07EA
:1019B000E1F71092EB041092E9041092EA041092FD
:1019C000E80410929903F89410927902579A83E0F0
:1019D0008093000581E0809308057894E091700081
:1019E000F0E0E15AF84F249130E0A0EBB4E00E941F
:1019F000293C009134031091350320913603309136
:101A000037036017710782079307E9F06093340387
:101A10007093350380933603909337030E94351CEF
:101A2000EE24E3948E010F5F1F4F28E130E04CE07D
:101A30000E94C21B811102C0599A01C059988A8123
:101A400080BD898189B980916E0090916F00A0E07E
:101A5000B0E0885D9242AD4ABD4F809301059093FE
:101A60000205A0930305B093040582E12E893F8906
:101A7000829FF001839FF00D1124488D598DE40F52
:101A8000F51FEA55FA4F8491833091F04B815C81C8
:101A90006D817E8177FF07C0709560955095419567
:101AA0005F4F6F4F7F4F411551056105710539F447
:101AB0006FEE81E10E944A261092390319C081E03D
:101AC0000E94DB24182F80913903882321F0809114
:101AD0003803181769F060E881EB0E944A266FE628
:101AE00081E10E944A2681E08093390310933803F4
:101AF000809189008093710481E0809368040E9442
:101B0000A61E80913C0390913D03A0913E03B091AD
:101B10003F034D855E856F857889481B590B6A0B9D
:101B20007B0B80918700813029F081E080938700D2
:101B30008093680480E00E94DB24182F80913B038F
:101B4000882321F080913A03181769F060E281EB55
:101B50000E944A266FE480E10E944A2681E0809339
:101B60003B0310933A038988882051F08A8C8110B6
:101B700002C0772029F081E0809368040E94A61EAD
:101B800081E0711001C080E090917604891729F0FE
:101B90008093760481E0809368040E94A61E6A9672
:101BA0000FB6F894DEBF0FBECDBFDF91CF911F916E
:101BB0000F91FF90EF90DF90CF90BF90AF909F90EC
:101BC0008F907F906F905F904F903F902F900895EF
:101BD00091100AC0AB2809F0B2CCD901C801840F1A
:101BE000951FA61FB71F8CCCAB2809F0A8CCD70136
:101BF000C601840F951FA61FB71F7FCCA9010C94A7
:101C0000CA1CFF920F931F93CF93DF9300D000D095
:101C10001F92CDB7DEB7F82E2D5E30403595279553
:101C200045EC5EE4249FC001259F900D349F900DEC
:101C300011249F938F9389EC96E09F938F9384E078
:101C40008F938E010F5F1F4F1F930F936D830E9421
:101C5000C9206D818F2D0E94281F0E94B61F0FB6CC
:101C6000F894DEBF0FBECDBFF80181918F018823AC
:101C700019F00E94831FF8CF0E94131F0F900F903E
:101C80000F900F900F90DF91CF911F910F91FF90C8
:101C90000895F89480910805813071F482E0809372
:101CA000070526EF30E03093060520930505809365
:101CB0000805569A0E94BD2478940895CF93C82FA2
:101CC0000E94A32991E020919B04213009F090E02B
:101CD0001F929F93E0919C0429E0E29FF001112460
:101CE000E458F34F94911F929F931F92CF9334E047
:101CF000839FF0011124E158FB4F83818F938281F0
:101D00008F9381818F9380818F9381EA96E09F9357
:101D10008F938BE28F9388E593E09F938F930E943C
:101D2000C9202DB73EB7215F3F4F0FB6F8943EBF95
:101D30000FBE2DBFCF910C9423308091DD0090E039
:101D4000889765E070E00E94AA3B7F936F9389E9D2
:101D500096E09F938F938BE28F9388E593E09F9318
:101D60008F930E94C9202DB73EB7295F3F4F0FB612
:101D7000F8943EBF0FBE2DBF0C9423301F921F92CC
:101D800080E996E09F938F938BE28F9388E593E0B1
:101D90009F938F930E94C9202DB73EB7295F3F4F75
:101DA0000FB6F8943EBF0FBE2DBF0C9423301F9288
:101DB0001F9287E896E09F938F938BE28F9388E53D
:101DC00093E09F938F930E94C9202DB73EB7295F60
:101DD0003F4F0FB6F8943EBF0FBE2DBF0C9423307B
:101DE000CF93DF93C0915003D0915103A0914E0344
:101DF000B0914F0320916D0080916B0090916C0029
:101E0000C817D907E8F030E00E94293C24E630E00A
:101E100040E050E00E94F13B2C173D07A0F4BE01CA
:101E2000620F731FEAE0E69FC001E79F900D112447
:101E3000BE01621B730B0E94DD3B6A50710905C035
:101E400060E070E002C06EE170E077277F936F93EF
:101E50008EE796E09F938F938BE28F9388E593E0D4
:101E60009F938F930E94C9202DB73EB7295F3F4FA4
:101E70000FB6F8943EBF0FBE2DBFDF91CF910C94EB
:101E800023300E94A329E82FF0E0E657FD4F81E0C0
:101E90009081911101C080E01F928F9385E796E0B9
:101EA0009F938F938BE28F9388E593E09F938F931B
:101EB0000E94C9202DB73EB7295F3F4F0FB6F89457
:101EC0003EBF0FBE2DBF0C9423300E94A329E82FE4
:101ED000F0E0E856FB4F81E09081911101C080E075
:101EE0001F928F938BE696E09F938F938BE28F9355
:101EF00088E593E09F938F930E94C9202DB73EB74A
:101F0000295F3F4F0FB6F8943EBF0FBE2DBF0C9414
:101F10002330CF93DF9320914A0330914B03AFEFEF
:101F2000B0E00E94293C2FEF33E040E050E00E94F7
:101F3000F13B822F90916700E92FF0E0D09166008D
:101F40006D2F70E0DF01A61BB70BC09165004C2F11
:101F500050E0E40FF51F30E02A173B0714F4892FF7
:101F60008D1B282F30E0E217F30714F4892F8C0F14
:101F7000282F30E02A1B3B0BEEE1E29FC001E39FDC
:101F8000900D1124640F751F0E94AA3B77277F9341
:101F90006F9382E696E09F938F938BE28F9388E511
:101FA00093E09F938F930E94C9202DB73EB7295F7E
:101FB0003F4F0FB6F8943EBF0FBE2DBFDF91CF91BC
:101FC0000C9423301F9281E08F938AE596E09F93D3
:101FD0008F938BE28F9388E593E09F938F930E947A
:101FE000C9202DB73EB7295F3F4F0FB6F8943EBFCB
:101FF0000FBE2DBF0C94233080919903811182E094
:102000001F928F9383E596E09F938F938BE28F933C
:1020100088E593E09F938F930E94C9202DB73EB728
:10202000295F3F4F0FB6F8943EBF0FBE2DBF0C94F3
:1020300023308FE496E09F938F938BE28F9388E514
:1020400093E09F938F930E94C9200F900F900F9061
:102050000F900F900C9423300E94D628811182E0BB
:102060001F928F9387E496E09F938F938BE28F93D9
:1020700088E593E09F938F930E94C9202DB73EB7C8
:10208000295F3F4F0FB6F8943EBF0FBE2DBF0C9493
:10209000233080917E001F928F938FE396E09F9371
:1020A0008F938BE28F9388E593E09F938F930E94A9
:1020B000C9202DB73EB7295F3F4F0FB6F8943EBFFA
:1020C0000FBE2DBF0C942330862F062E000C990BCB
:1020D0009F936F9389E396E09F938F938BE28F9307
:1020E00088E593E09F938F930E94C9202DB73EB758
:1020F000295F3F4F0FB6F8943EBF0FBE2DBF0C9423
:102100002330E0919C0429E0E29FF0011124E35880
:10211000F34F859195919F938F9381E396E09F93E1
:102120008F938BE28F9388E593E09F938F930E9428
:10213000C9202DB73EB7295F3F4F0FB6F8943EBF79
:102140000FBE2DBF0C942330CF93DF9300D0CDB7BB
:10215000DEB7AC014296FC0185919591863FF1E096
:102160009F07D9F09A012C5E3F4FF901A591B591D7
:10217000109759F02D913C913A83298342E0BE019A
:102180006F5F7F4F0E94AC2B08C0FA0176960590D6
:10219000F491E02D60810E94AD2C0F900F90DF91A3
:1021A000CF9108958F929F92AF92BF92CF92EF926C
:1021B0000F93CF93DF9300D0CDB7DEB749015A011B
:1021C0002E2DEC2C2A8309830E94281F0FEF2A81D1
:1021D0004981C501B4010E94E4230F900F90DF9163
:1021E000CF910F91EF90CF90BF90AF909F908F9035
:1021F00008958F929F92AF92BF92CF92DF92EF920B
:10220000FF920F931F93CF93DF93182FF62EE901C0
:10221000F9013B96C490329704913196E4903A9636
:10222000A590B59032973797849183FF06C0D5016A
:102230001996ED91FC911A9707C082FF12C0D50143
:102240001796ED91FC9118978D919C9140A151A109
:1022500062A173A19A01AB01280F391F411D511DC5
:1022600022C0F90178960590F491E02DA114B104F3
:1022700059F00995F501208131814B015C01820EF5
:10228000931EA11CB11C0DC00995FE017696059008
:10229000F491E02D20814B015C01820E911CA11C68
:1022A000B11CA50194018C2D90E0FC01E95FF109BE
:1022B000E730F10508F06BC0E95CFF4F0C94233C5C
:1022C000232B242B252B19F448E757E04EC04CE76D
:1022D00057E04BC0232B242B252B19F440E757E064
:1022E00044C044E757E041C0F901EA59F84F24914E
:1022F000822F90E0A0E0B0E09C01AD0162E0220FEF
:10230000331F441F551F6A95D1F725C0F901E15AC3
:10231000F84F249130E0A0EBB4E00E94293C9B01EF
:10232000AC0119C0F901EE0FFF1FE152F94F2591E1
:10233000359140E050E00FC081E090E0A0E0B0E0D7
:102340005C016D0104C0AA0CBB1CCC1CDD1C2A95D1
:10235000D2F7A6019501C12C1AC0F901EE0FFF1F9B
:10236000EE0FFF1FAF014153594F802F8E196F2D74
:10237000810FDF91CF911F910F91FF90EF90DF9030
:10238000CF90BF90AF909F908F900C94CA1C6F2DF0
:10239000812F0E94D210DF91CF911F910F91FF905A
:1023A000EF90DF90CF90BF90AF909F908F90089567
:1023B000CF9380918802811102C0B29908C0F8942D
:1023C00010927902109287027894C1E001C0C0E0B7
:1023D00080917802882359F0809169028823F1F076
:1023E000B4991CC081E090E0892B09F0C1E00E9403
:1023F000D628811109C0C11107C081E090918802DF
:10240000911104C080E002C0C1E081E0F894C09363
:102410006604809365047894CF91089531E020E0BC
:1024200080917902811101C030E0832F922FDCCF9F
:10243000E82FF0E0E451FB4F81E0808308958F9214
:102440009F92AF92BF92CF92DF92EF92FF921F9333
:10245000CF93DF9300D0CDB7DEB7182F6B017A0191
:10246000FA011082CE0101960E94EF27823009F412
:1024700099C2833049F181119DC280910805813054
:1024800009F0B4C2ECEEF4E080E090E0F894219121
:102490002223A1F0FC01ED57FC4F6081FC01E451C7
:1024A000FB4F10827894880F991FFC01E850FF4F72
:1024B0000190F081E02D812F099598C278940196C2
:1024C0008431910519F792C2E981FA81C380D12C38
:1024D000E12CF12CFE2CED2CDC2CCC248481C80EBC
:1024E000D11CE11CF11CFE2CED2CDC2CCC248581B4
:1024F000C80ED11CE11CF11CFE2CED2CDC2CCC24D4
:102500008681C80ED11CE11CF11C92818181208141
:10251000293439F4843409F0F9C09111CDC189E02E
:102520003EC22134E9F4893409F0C6C19923B1F0DF
:10253000C114D104E104F10471F0F2E0CF16D1042A
:10254000E104F10409F0B8C181E08093990381E1CD
:102550000E941812D9C0109299032CC28FE01FC29A
:10256000263409F07FC08134D9F59923B9F1812F40
:102570000E94A32924E0829FC0011124FC01E1589C
:10258000FB4F40815181628173814A015B01E0E32D
:102590008E1AE5E79E0AA108B108F0E58F16F9E862
:1025A0009F06F1E2AF06FAE0BF0620F040E355E7F0
:1025B00060E070E04601570120E3821A25E7920AA5
:1025C000A108B108E0E58E16E9E89E06E1E2AE0654
:1025D000EAE0BE06E8F16A017B013AC08AE0DFC1A9
:1025E000823409F067C19923D9F181E0111180E0AB
:1025F0000E94A329F4E08F9FC0011124FC01E1583F
:10260000FB4F80819181A281B381AC01BD01405318
:102610005547610971094035594861427A4020F0B7
:1026200080E395E7A0E0B0E0B701A601405355472D
:10263000610971094035594861427A4010F06C01D6
:102640007D01812F0E94A329F4E08F9FC0011124F6
:10265000FC01E158FB4FC082D182E282F3824EC07E
:102660008BE09DC12035D1F4843509F077C09923E2
:1026700099F02EE0C216D104E104F10428F056E0EE
:10268000C52ED12CE12CF12C8C2D880F880F8C0DB0
:10269000885D8093DD0032C080E181C12D34E9F591
:1026A000843409F009C1992379F1812F0E94A3296B
:1026B00020919C04ECE7FCE090E034913F3F11F066
:1026C000C31629F09F5F39969B30B9F701C0292FB7
:1026D000E82EF12CC7018C569D4F6C01BC01822F56
:1026E0000E94282BF6019081F701EE0FFF1FEE0FDD
:1026F000FF1FE457FD4FE90FF11D8083412F61E07B
:1027000081E00E9411086EC18CE049C1863409F055
:10271000D3C091114FC181E142C12235D9F5813435
:1027200009F0ABC09923C1F0812F0E94A329E82FA3
:10273000F0E024E0C216D104E104F10418F0C12C49
:10274000D12C7601E856FB4FC082412F60E081E03A
:102750000E94110884E014C084E021C18134A9F4EE
:10276000992389F0812F0E94A329E82FF0E0E657F2
:10277000FD4F1082412F60E081E00E94110885E04A
:102780000E9418122FC185E00AC1833509F094C058
:1027900082E005C1233569F48D3409F08DC0992399
:1027A00009F48AC0CD28CE28CF2809F085C083E05F
:1027B000F6C02535D9F4803509F07EC0992309F497
:1027C000F9C084E6C816D104E104F10420F0C12C5C
:1027D000D12C7601C3942091810030E02C9DC00162
:1027E0002D9D900D3C9D900D11241CC0243429F585
:1027F0008E3409F061C0992309F4DCC094E6C9164F
:10280000D104E104F10420F0C12CD12C7601C39451
:10281000D194C194D108209181002C9DC0012D9D9F
:10282000900D11242091970330919803820F931FEC
:102830009093980380939703BDC0243509F090C00E
:102840008835D1F580919903992399F0C114D10469
:10285000E104F10471F0E2E0CE16D104E104F104E8
:1028600019F491E090938702882309F4A3C08DE0C6
:1028700096C091E090937902F7CF883559F4109281
:1028800087021092790280919903882309F492C0FB
:102890008EE085C08D3481F4992381F0D701C60183
:1028A0000197A109B1090397A105B10528F4C092C8
:1028B0009A0380C0873571F083E171C080919A03DB
:1028C000823021F0833021F086E069C087E067C064
:1028D00088E065C0992309F441C0F0E1CF16F7E222
:1028E000DF06E104F10430F09CE1C92E9CE0D92E12
:1028F000E12CF12C6091970425EFC21621E0D2065D
:10290000E104F10418F4EBEBF0E002C0EBEAF0E0D4
:1029100080858823E1F080E0EB3BF80789F090E0C8
:10292000EB3AF90779F020E0EB39F20769F080E043
:10293000EB38F80759F0EC5CF04049F464E007C06C
:1029400060E005C061E003C062E001C063E0809127
:1029500085020E943B1D809397041AC082E11FC02C
:102960002B3409F0A9CF833509F0A6CF9923B1F014
:10297000D701C6010497A109B109CA97A105B105FC
:1029800028F084E1C82ED12CE12CF12CC0927E00DD
:10299000412F61E081E00E9411080CC081E00E949B
:1029A000181208C0E981FA818081F601808381E0F4
:1029B000F7018083E981FA81F894A091AD04B09188
:1029C000AE043597B183A0838DEA94E0938382832C
:1029D0001396FC93EE931297F093AE04E093AD043C
:1029E000789404C0812F0E943231E4CF0F900F9071
:1029F000DF91CF911F91FF90EF90DF90CF90BF902C
:102A0000AF909F908F900895CF92DF92EF92FF92B8
:102A100069017A01F694E794D794C7946C0D7D1DF3
:102A20008E1D9F1D0E94F13BCA01B901FF90EF90DE
:102A3000DF90CF900895779BFECF8FB10895779B5D
:102A4000FECF08951F920F920FB60F9211248F920E
:102A50009F92AF92BF92CF92DF92EF92FF920F932D
:102A60001F932F933F934F935F936F937F938F9316
:102A70009F93AF93BF93CF93DF93EF93FF9384B173
:102A800095B1E0914904AE2FB0E0AA52BE4FAC918F
:102A9000B0E0AA0FBB1FA85BBC4F11969C938E930E
:102AA000EF5FE0934904E73008F4BDC110914204A0
:102AB0006AE7C62E62E0D62ECDE9D4E0E12CF12CF7
:102AC00000E078EE872E73E0972EA12CB12CF70151
:102AD000EE0FFF1FE85BFC4F80819181F601219191
:102AE0006F012130E1F018F0223021F03DC09983D0
:102AF00088833AC0288139812817390758F0A1EE18
:102B0000B3E00E94293CA50194010E94F13B622F91
:102B1000832F02C0682F892F6883898325C0E12F06
:102B2000F0E0EE0FFF1FEE53FC4F918380831F5F99
:102B3000103408F010E0E2ECF3E040E050E0BA01BD
:102B400081919191480F591F611D711D24E0E2345C
:102B5000F207B1F736E076956795579547953A9520
:102B6000D1F75983488301E03FEFE31AF30A229635
:102B700088E0E816F10409F0AACF0111109342048D
:102B80002091560330915703AFE0B0E00E94293CFA
:102B9000CC24CA9423E0D22EE12CF12CA70196017B
:102BA0000E94F13BE22FF0E0EA53FE4F90819F3FFD
:102BB000A9F42091540330915503AFE0B0E00E9496
:102BC000293CA70196010E94F13BE22FF0E0EA5375
:102BD000FE4F90819F3F39F081E001C080E0880F77
:102BE000880F890F01C08FEF2091170530911805CC
:102BF0008F3F09F4C5C02330310520F090911605B0
:102C0000981316C04091460450914704452B19F083
:102C100023303105D0F44091170550911805452B0C
:102C200039F02330310588F490911605981769F032
:102C30008093160581E090E0909318058093170526
:102C40001092470410924604EBC086E090E0909307
:102C500047048093460480911605C4E08C9FC00110
:102C60001124FC01E35CFD4F208120FF14C0209162
:102C70001705309118052F5F3F4F309318052093AB
:102C800017052837310501F1283C310509F0D3C07B
:102C900028E730E015C024FF20C0209117053091AF
:102CA00018052F5F3F4F30931805209317052832E2
:102CB000310551F02C33310509F0BDC028E230E078
:102CC0003093180520931705FC01E35CFD4F11813B
:102CD0001092470410924604C3C021FF32C02091D5
:102CE0001705309118052F5F3F4F3093180520933B
:102CF00017052832310509F09EC020914504243182
:102D000018F424E230E002C027E230E030931805E6
:102D100020931705FC01E35CFD4F81818C3211F09B
:102D20002FEF01C021E08091430490914404D5E04D
:102D30002D02800D911D112490934404809343042F
:102D40007AC080911705909118058837910509F48C
:102D500072C080911705909118058837910508F089
:102D60006AC08091170590911805019690931805F7
:102D7000809317058837910509F05DC0128170C0F6
:102D80008091460490914704009709F454C0233081
:102D9000310548F410921805109217051092470457
:102DA0001092460448C001979093470480934604CC
:102DB000892B09F040C0E091160524E0E29FF00164
:102DC0001124E35CFD4F808181FF17C08091450491
:102DD000811122C081818C3211F02FEF01C021E0DE
:102DE0008091430490914404820F911D27FD9A9590
:102DF00090934404809343040FC0809117059091F1
:102E000018058837910540F4118110921805109229
:102E100017051092450424C010921805109217054A
:102E20001092450408C0F0E0EA52FE4F80818064B1
:102E300087B9369A4DC080914804882369F0815043
:102E400080934804811108C080916A04882321F08E
:102E500010926A040E94111E81E08093820238C0A1
:102E600085E08093480480916A04813029F081E0F4
:102E700080936A040E94111E8091AD049091AE046B
:102E80008D5A944049F3E091AF04F091B004A081D1
:102E9000B18182819381EC01B983A88313969C93BD
:102EA0008E931297158382E08483A091B104B09130
:102EB000B204B183A08381EB94E093838283139661
:102EC000FC93EE931297F093B204E093B104C4CF55
:102ED000FF91EF91DF91CF91BF91AF919F918F9132
:102EE0007F916F915F914F913F912F911F910F9122
:102EF000FF90EF90DF90CF90BF90AF909F908F901A
:102F00000F900FBE0F901F9018951F920F920FB643
:102F10000F9211241F932F933F934F935F936F93BF
:102F20007F938F939F93AF93BF93CF93DF93EF9351
:102F3000FF9380917B04882319F0815080937B0458
:102F400080917C0430917D04831758F48F5F8093C7
:102F50007C0421E090E0831708F420E0C22FD92FF1
:102F600002C0C1E0D0E0809131030E94911E182F71
:102F7000E0917E048E2F90E08D30910508F02BC1FA
:102F8000FC01E25CFF4F0C94233C0E94981D0E94C0
:102F9000FF2F80E00E94E72F21E030E08091E704DE
:102FA000882311F020E030E0F901E651FB4F408129
:102FB000D901A851BB4F59E1529FC001539F900DB9
:102FC00011248B549B4F2C91241708F0F8C031E04A
:102FD000320F3C93FC01E20FF11DE081E03249F435
:102FE000341750F4FC01E30FF11D2081203221F44D
:102FF000EACFE11102C0E3C0E0E2E152EF3340F476
:10300000F0E0EE0FFF1FE85BFE4F8081918102C070
:1030100083E090E09093C1038093C003837099276D
:103020008230910539F08330910541F0019709F024
:10303000D2C037C060912F038AE005C08091300371
:1030400068E7681B8CE00E946F1DC5C0CD2B09F49A
:10305000C2C06091300380917804681B8BE0A4C0EB
:10306000CD2B09F4B8C0609130038BE073C0CD2B39
:1030700009F4B1C08091C0039091C10396958795E2
:10308000969587959093C1038093C0038370992789
:103090008130910531F060912F03029741F48AE06D
:1030A00059C08091780464E1681B89E07DC08091FB
:1030B0003003681B8CE04EC0CD2B09F48CC060E05F
:1030C00080E0C1CFCD2B61F0609130038091780416
:1030D000681B87E00E946F1D88E080937B0466C0B8
:1030E000812F0E94761D882309F475C084E08093A7
:1030F0007E0432C0CD2B49F06091300387E00E94FE
:103100006F1D88E080937B0466C0812F0E94861D1E
:10311000882309F460C083E02FC0CD2B09F45BC085
:103120006091300386E08FCFCD2B09F454C06091BD
:10313000300380917804681B85E036C0CD2B79F090
:1031400080917A0482FFBBCF60912F03809130037E
:10315000681B88E00E946F1D0E94981D3CC0812F53
:103160000E94861D882311F085E006C0812F0E94F1
:10317000761D882381F186E080937E042CC0CD2BC0
:1031800009F09DCF812F0E94761D8111F4CF812FF0
:103190000E94861D8111E8CF1EC0CD2BE1F08091E9
:1031A000780464E1681B81E00E946F1D0E949D1DF0
:1031B00012C0CD2B81F060912F0382E044CF812F8C
:1031C0000E94761D8111F7CF812F0E94861D8823D2
:1031D00011F064E1E8CFFF91EF91DF91CF91BF91C2
:1031E000AF919F918F917F916F915F914F913F919F
:1031F0002F911F910F900FBE0F901F9018951F9247
:103200000F920FB60F9211240F931F932F933F939A
:103210004F935F936F937F938F939F93AF93BF93DE
:10322000EF93FF93CF93DF931F92CDB7DEB78091DB
:1032300031030E94911EE0917E04F0E0E058F84FC7
:103240009491911123C081FF04C090917A0490FD64
:103250001DC080FF04C080917A0481FD17C0809159
:1032600078028823B1F080916802882351F080B3FE
:1032700086958695869591E08927082F017010E044
:1032800002C000E010E09801332705C021E030E0E3
:1032900002C020E030E0822F2115310581F09091AD
:1032A0006104992361F090916404992341F0409165
:1032B0007602509177025093600440935F0490919E
:1032C0004B04F901E90FF11DE90FF11DE257F84F29
:1032D0009491E0918300F0918400E90FF11D9491A5
:1032E000992311F021E030E090916B04921731F0B6
:1032F00020936B0489830E94111E898120915F04B1
:10330000309160042115310531F02150310930939D
:10331000600420935F0420916204309163042115BE
:10332000310531F021503109309363042093620458
:103330000E948F2080915C0490915D048917F9F0C0
:10334000A82FA695A695A695B0E0A45BBB4FE82F45
:10335000E770F0E0EB5DFD4F2C919081922321E02E
:1033600009F420E090E001968F77992780935C0420
:1033700080915E04821B80935E04822F01C080E0F6
:10338000E0914B044E2F50E04830510508F0E4C066
:10339000FA01E55BFF4F0C94233CE0914B04F0E015
:1033A000EE0FFF1FE257F84F8491E0918500F091F6
:1033B0008600E80FF11D84910E948B1E0E947020F0
:1033C000882309F4C9C0809173028093A8038823DD
:1033D00009F468C081E0A6C0E0914B04F0E0EE0F74
:1033E000FF1FE257F84F8491E0918500F09186002D
:1033F000E80FF11D84910E948B1E8091A8038150DB
:103400008093A8038111A8C07CC0E0914B04F0E038
:10341000EE0FFF1FE257F84F8491E0918500F09185
:103420008600E80FF11D84910E948B1E8091A803F5
:1034300081508093A80381118FC071C0E0914B042B
:10344000F0E0EE0FFF1FE257F84FE80FF11D8491F7
:10345000E0918500F0918600E80FF11D84910E94B3
:103460008B1E8091A80381508093A803882309F4C0
:1034700042C072C0E0914B04F0E0EE0FFF1FE25734
:10348000F84F8491E0918500F0918600E80FF11DDE
:1034900084910E948B1E8091A80381508093A80381
:1034A00081115AC082E03EC0E0914B04F0E0EE0F83
:1034B000FF1FE257F84FE80FF11D8491E09185005E
:1034C000F0918600E80FF11D84910E948B1E0E94EE
:1034D0007020811141C080914A04882361F080915D
:1034E000A80390E020917102309172028217930735
:1034F00011F485E017C0809174028093A8038111B4
:1035000002C087E00FC086E00DC08091840288234E
:1035100019F1809175028093A803811102C084E0A3
:1035200001C083E080934B0417C0E0914B04F0E0AE
:10353000EE0FFF1FE257F84F8491E0918500F09164
:103540008600E80FF11D84910E948B1E80918402F9
:10355000811102C010924B044091B7035091B803FF
:103560001092B8031092B7032091430430914404A1
:1035700010924404109243048091B5039091B603D5
:10358000840F951F9093B6038093B5038091B30386
:103590009091B403820F931F9093B4038093B3036D
:1035A0008091B203E82FF0E0BF01660F771FCB01D7
:1035B00086559C4F57FF03C051954195510937FFE0
:1035C00003C0319521953109240F351F66557C4F75
:1035D000DB014D915C91240F351FDC012D933C9351
:1035E0009091A9039F5F993118F49093A9030FC09C
:1035F0001092A903CF010196837099278093B2039B
:10360000880F991FFC01E655FC4F118210828091B2
:10361000BB039091BC031092BC031092BB0320919A
:10362000B9033091BA03820F931F9093BA0380932A
:10363000B90380919702882319F0815080939702F3
:103640008091BD03882319F081508093BD03809140
:10365000190590911A05009729F0019790931A0582
:103660008093190580911B05882319F08150809360
:103670001B058091BE039091BF030196883C910584
:1036800028F49093BF038093BE0304C01092BF033D
:103690001092BE031092490482E487B9369A0F90C3
:1036A000DF91CF91FF91EF91BF91AF919F918F915A
:1036B0007F916F915F914F913F912F911F910F914A
:1036C0000F900FBE0F901F9018951F920F920FB67C
:1036D0000F9211242F933F938F939F93EF93FF9318
:1036E00080B38C7090E096958795969587952091FC
:1036F0007002FC0134E0239FE00DF11D1124E85C11
:10370000FE4F90812091B7033091B803291B3109F6
:1037100097FD33953093B8032093B70380937002DD
:10372000FF91EF919F918F913F912F910F900FBE3D
:103730000F901F9018951F920F920FB60F921124A1
:103740002F933F934F935F936F937F938F939F93A9
:10375000AF93BF93EF93FF930E94651BFF91EF918F
:10376000BF91AF919F918F917F916F915F914F9199
:103770003F912F910F900FBE0F901F901895000052
:10378000000008952F923F924F925F926F927F9226
:103790008F929F92AF92BF92CF92DF92EF92FF9261
:1037A0000F931F93CF93DF934B015C01F42E6901BC
:1037B00041E1242EC1E0D0E0312C4E2C512C612C63
:1037C000712C96012C233D23232B11F19E0140E007
:1037D00050E0C501B4010E94F13BBA01A9014419AE
:1037E000550966097709DB01CA0120E00097A105A8
:1037F000B10531F0B695A795979587952F5FF6CFD0
:10380000F21628F0F80151834083832D13C03394BE
:10381000CC0FDD1F2A942110D4CF81E090E002C0AC
:10382000880F991FFA94E2F70197F801918380833A
:103830008FEF830DDF91CF911F910F91FF90EF904C
:10384000DF90CF90BF90AF909F908F907F906F90C0
:103850005F904F903F902F9008959B01AC0160E0E6
:1038600074EB84EC94E00C9404159B01AC0160E0D3
:1038700072E18AE790E00C9404158F929F92AF92C8
:10388000BF92CF92DF92EF92FF920F931F93CF934D
:10389000DF93EC01F894EAEAF3E0A081B181828140
:1038A0009381A80FB91F84819581A80FB91F8681C4
:1038B0009781A80FB91FE091A903F0E0E55BFF4FE6
:1038C000062F10E08091B3039091B403089F70011C
:1038D000099FF00C189FF00C11248091B503909172
:1038E000B603E80EF91E1092B6031092B5031092BB
:1038F000B4031092B3037894C0907C00D0907D0004
:1039000020E035E644E050E00E943F3C4B015C0182
:103910009F01D6010E94293C9B01AC01C501B40165
:103920000E94F13B398328838091970390919803FB
:10393000B8018E0D9F1D0E94AA3B9093980380931F
:103940009703CB01DF91CF911F910F91FF90EF90E3
:10395000DF90CF90BF90AF909F908F90089510927E
:10396000980310929703F8941092B6031092B5033F
:103970001092B4031092B303EAEAF3E017821682BE
:103980001582148213821282118210821092A9036E
:1039900078940895CF93DF93EA010E94281FCE0107
:1039A000DF91CF910C949A23BC014BE090E0242F3F
:1039B00030E0291B310937FF02C02F5F3F4F35959B
:1039C0002795892F820F282F30E0F901EE0FFF1F76
:1039D000E05EFE4F0190F081E02D6E177F0768F0EA
:1039E000220F331FF901EE5DFE4F208131818F5F81
:1039F0002617370750F4982F01C0482F9417B8F2B4
:103A0000911102C080E008958CE0089568E77CEE93
:103A10008FEF9FEF0895982F80ED890F8A3058F02F
:103A2000903231F0933221F09F3521F08CE00895EF
:103A30008BE008958AE00895823041F0833051F0A0
:103A4000813011F084EA03C084E801C084EC86BFB1
:103A50008FEF0AC084E986BF80E0089592E09A95CE
:103A6000F1F700C0882321F0815006B607FEF6CF9B
:103A700081B1887F089591E001C0990F8A95EAF796
:103A8000862FE82FF0E0EE0FFF1FE45CF34F059068
:103A9000F491E02D2081292319F02085211107C000
:103AA000843010F48F5F01C080E06813EACF08957E
:103AB000893049F0E62FF0E0EE0FFF1FE45CF34F92
:103AC0008591959108958CEC90E00895E62FF0E0B3
:103AD000EE0FFF1FE45CF34F85919591089580935D
:103AE0007E0460937D0410927C040895982F809149
:103AF0007B04811109C0892F827091FF06C08091DB
:103B00007A0480958170089580E00895982F8091BF
:103B10007B0481110BC0892F817090FF08C08091B8
:103B20007A048695817091E08927089580E0089550
:103B300010927904109278040895909179049C3041
:103B400040F480917704890F80937904869580935F
:103B500078040895CF93DF93809176049091740454
:103B6000882309F458C081E020917504211101C017
:103B700080E0C0E88111C064809173048111C0624B
:103B8000809172048111C0619111C860209171040B
:103B900080917004281708F0C46080916F0481112F
:103BA000C26080916E04813009F0C16080E090E0D5
:103BB000D0E0422F50E0BA01082E02C076956795FA
:103BC0000A94E2F760FF05C0FC01EB5DFD4F348114
:103BD000D32B01968430910571F780916D0481118A
:103BE000D86080916C048111D4608091CB0028173B
:103BF00008F0D2600E94CF2380E40E94472BCFB907
:103C00000E941F15DFB90E941B150E94502B1DB882
:103C1000DF91CF91089581E0911101C080E0C0E073
:103C2000A9CF8091690481110BC080916A04811130
:103C30000AC080916B04882321F182E090E005C0E6
:103C400080E090E002C081E090E0FC01EE0FFF1FF9
:103C5000E057FB4F20813181FC01E357FB4F80810E
:103C60008F5F886195B5891305C043B550E024176F
:103C7000350728F498E195BD23BD14BC03C023BDCE
:103C8000089588E185BD0895AF92BF92CF92DF92EB
:103C9000EF920F931F93CF93DF9300D0CDB7DEB792
:103CA000C82ED12C5601AA0CBB1CF501E957FB4FBD
:103CB000808191818617970709F171836083660F70
:103CC000771F80E090E00E942D1CEE24E3948E018B
:103CD0000F5F1F4F29EE35E048E00E94C21BF894A9
:103CE000F601E357FB4F8083F501E057FB4F8981D5
:103CF0009A8191838083789481E001C080E00F9065
:103D00000F90DF91CF911F910F91EF90DF90CF90A7
:103D1000BF90AF90089592B39F7B8074892B82BB34
:103D20000895282F36B331FD07C0811102C091E0FC
:103D300001C092E0892F01C080E030FD06C0211152
:103D400002C092E001C091E0892B0895809168043F
:103D5000882321F0109268040C94AA1D089583B959
:103D600081E00C941C1DEF92FF920F931F93CF9351
:103D7000DF931F92CDB7DEB769830E940B1D24E14C
:103D8000829FC001112469813AE0639F800D911DDB
:103D90001124FC01E45BF44F7F018F01065F1F4F8C
:103DA000F70131967F01319785910E94AF1EE01691
:103DB000F106B1F70F90DF91CF911F910F91FF9016
:103DC000EF900895FF920F931F93CF93DF931F926D
:103DD000CDB7DEB78E3211F0833219F496E0F92EAA
:103DE00001C0F12C69830E940B1D28E1829FC00154
:103DF000112469818C012CE0629F000D111D11249A
:103E00000C5E154FF801EF0DF11D84910E94AF1E5D
:103E1000F3948CE0F812F6CF0F90DF91CF911F91C1
:103E20000F91FF90089583E00C941C1DCF93C82F31
:103E300080E00E941C1D883349F0883011F08031E9
:103E400029F4C3B981E0CF910C941C1DCF91089542
:103E50001F93CF93DF931F92CDB7DEB7982F990FA3
:103E6000890F182F110F80E769830E94161F87E0C2
:103E70006981861B806B0E94AF1E812F8E700E940D
:103E8000AF1E812F82958F7080610E94AF1E0F90B0
:103E9000DF91CF911F910C94131F8F929F92AF923D
:103EA000BF92EF920F931F93CF93DF931F92CDB7E3
:103EB000DEB7182F81E0411180E069830E94A329B9
:103EC00024E0829FC0011124FC01E158FB4F808057
:103ED0009180A280B3806981812F0E94281FEE24E7
:103EE000E39405E022E048E0C501B4010E94E42328
:103EF0000F90DF91CF911F910F91EF90BF90AF90F6
:103F00009F908F9008950F931F93CF93DF938052CC
:103F100096E0899FE0011124CC52D84F8E010A5FB0
:103F20001F4FFE01219685910E94AF1EC017D10739
:103F3000C1F7DF91CF911F910F910895CF93DF9338
:103F4000C0E06C2F80E00E94281F82E70E94161FAD
:103F5000D4E880E00E94AF1ED150D9F70E94131F11
:103F6000CF5FC83071F7DF91CF91089582E70C944D
:103F7000161F2F923F924F925F926F927F928F9275
:103F80009F92AF92BF92CF92DF92EF92FF920F93E8
:103F90001F93CF93DF93CDB7DEB72A970FB6F89470
:103FA000DEBF0FBECDBF982E862E842F232B09F0A7
:103FB0007EC00E94A32924E0829FC0011124FC013D
:103FC000E158FB4F708061808281898723812A8735
:103FD00011E0682D610F892D0E94281F0E94B61FD5
:103FE00089E8A82E8DE0B82E672D762D89859A85D3
:103FF000CC24C394D12C08E0E12CFF24F394F501E8
:1040000034965F01349725913591459155910E94E1
:10401000BE3B29833A834B835C836D837E838F838E
:10402000988729803A804B805C80053049F4FF20D6
:1040300011F083E201C08EE2612F0E94E21E09C0EE
:10404000023039F4612F8EE20E94E21EEE24E394E6
:1040500013C0F1E0FF120EC028E0C216D10451F0E7
:10406000211431044104510429F4612F80E20E949B
:10407000E21E0EC0EE2031F0612F80E3820D0E941F
:10408000B31E05C0612F80E3820D0E94E21EF12C59
:104090006D817E818F8198850150EFEFCE1ADE0A07
:1040A0000111ADCF0E94131F115008F092CF2A9634
:1040B0000FB6F894DEBF0FBECDBFDF91CF911F9139
:1040C0000F91FF90EF90DF90CF90BF90AF909F90B7
:1040D0008F907F906F905F904F903F902F900895BA
:1040E00080916604811119C080916504811115C009
:1040F00080916404882391F080916104882331F0D9
:1041000080915F0490916004892B39F481E0909153
:104110005E04911103C080E0089581E00895E0916C
:104120005D042E2F30E02F5F3F4F2F773327909184
:104130005C049217F1F0AE2FA695A695A695E770B0
:10414000B0E0A45BBB4FF0E0EB5DFD4F882321F0B6
:1041500040819C91942B04C0908190954C91942324
:104160009C9320935D0490915E04890F80935E047C
:10417000089580914B040895E0914B0480914B0485
:104180008E1711F0E82FFACFF0E0E453F84F849146
:1041900008952F923F924F925F926F927F928F92EB
:1041A0009F92AF92BF92CF92DF92EF92FF920F93C6
:1041B0001F93CF93DF93CDB7DEB76D970FB6F8940B
:1041C000DEBF0FBECDBFCDA8DEA88AA99BA99D8B5F
:1041D0008C8B198A188A8CA990E09B8B8A8B7E0124
:1041E00027E3E20EF11C212C312C2101A12CB12C52
:1041F0003E014FE0640E711CF6016491662309F4E0
:10420000E5C1653291F0062E000C770BCE01409689
:104210000E946731019611F41FEFD9C18FEFC81AC0
:10422000D80A9FEFA91AB90AE7CF1F86F60131967F
:1042300054913196A0E2AF8B198E1E8AB1E0B88FEF
:104240005B3289F03CF4503271F0533299F461E002
:104250006E8B0EC05D3249F0503361F420E32F8B3A
:1042600041E0488F05C0598F03C080E28F8B188EC4
:104270005591E6CF5A3211F0912C0BC0D7019C908A
:104280006F01BFEFCB1ADB0A5491F70132967F0121
:104290000EC06F0180ED850F8A3048F42AE0929EAF
:1042A000500D112420ED922E950E5591F2CF5E32D5
:1042B00019F5F60155915A3211F0812C0CC0D70135
:1042C0008C905491F70132967F01C60102966C01E1
:1042D00090E29F8B13C06F0180ED850F8A3048F408
:1042E000AAE08A9E500D112490ED892E850E5591DD
:1042F000F2CFB0E2BF8B02C088248A945C3661F1B1
:10430000BCF4583634F45536ACF5583509F44DC084
:1043100052C0583609F04FC0F6015491D7012D9084
:104320003C90032C000C44085508F70132961DC040
:10433000B7016E5F7F4F533709F14CF45F36A9F137
:104340005037C9F5D7012D903C907B01CDC0553732
:1043500061F1583751F12FC0F6015491D7012D90DA
:104360003D904D905C90F70134967F01C601019617
:104370006C012BC094E0E90EF11C27C0D7012D91F0
:104380003C912115310511F42DE532E0482D50E026
:10439000F90180E090E08417950710F07B01BCC024
:1043A000A191AA23D9F30196F6CFF701208031809D
:1043B000412C512C07C0F70120803180032C000CC8
:1043C00044085508C70102967C0158368CF45536CE
:1043D0000CF012CF583509F46DC024F4553409F4AB
:1043E0000BCF94C0533609F490C0543639F18EC0C7
:1043F000503709F479C02CF4593601F15F3639F0A1
:1044000085C0553789F1583709F440C07FC00BEBA0
:1044100017E0930148E0C201B1010E9485319C017F
:10442000211431044104510409F474C09E89992374
:1044300009F470C0F90180E3829326C057FE14C0CE
:1044400088279927DC0182199309A409B5090BEB88
:1044500017E093014AE0BC01CD010E948531DC01E7
:10446000EDE2EE939D0156C00BEB17E093014AE09D
:10447000C201B1010E9485319C01F98DFF2309F42D
:1044800049C0FC01298D22939F0144C00BEB17E02A
:10449000930140E1C201B1015D8F0E9485319C0111
:1044A0005D8D2114310441045104A1F14E8944234E
:1044B00089F113C00AEA17E0930140E1C201B1019A
:1044C0005D8F0E9485319C015D8D21143104410472
:1044D000510401F16E896623E9F0F90131975083A7
:1044E000319780E38083D0CFC101A0E0B0E00AEA39
:1044F00017E0930140E1BC01CD010E9485319C0190
:1045000084E0982E80E38F8B05C0522D5E879E013C
:10451000225F3F4F862D821B8E8A881508F48E8B72
:10452000988D9923D1F0892DAF890A2FAA0F110BED
:104530009A944E89481788F4B801CE0140962B8F83
:104540003C8F0E9467312B8D3C8D019609F464CE1F
:10455000EFEFAE1ABE0A892DEBCF890120E030E0E3
:10456000482D50E0C501820F931FD8016D918D0138
:10457000611105C0B88D5C01B1113ECE23C0241776
:104580003507C4F770E0CE0140962B8F3C8F4A8FE1
:104590005D8F0E9467312B8D3C8D4A8D5D8D01961C
:1045A00009F43ACE2F5F3F4FDDCF60E270E0CE01DD
:1045B00040960E9467319A94019609F42DCEFFEF40
:1045C000AF1ABF0A2E89291580F316CE1A2D60E086
:1045D00070E0CE0140960E946731812F6D960FB634
:1045E000F894DEBF0FBECDBFDF91CF911F910F9129
:1045F000FF90EF90DF90CF90BF90AF909F908F9003
:104600007F906F905F904F903F902F900895089506
:1046100008950895CF93DF9390919B04913019F4FE
:10462000CDE2D2E002C0C3E3D2E00E94281F0E9484
:10463000B61F8991882319F00E94831FFACFDF915A
:10464000CF910C94131F40919C0499E0499FA001C5
:1046500011244158534F0C94CA1C40919A0496E07F
:10466000499FA00111244159534F0C94CA1C9091A9
:104670009604992319F041E55CE002C04CE45CE04B
:104680000C94CA1C442319F049E45CE002C046E4DF
:104690005CE00C94CA1C1F93CF93DF931F92CDB79D
:1046A000DEB7182F81E0411180E069830E94A329C1
:1046B0000E94F12829E0829FC0011124AC014158D9
:1046C000534F6981812F0F90DF91CF911F910C94EF
:1046D000CA1C1F93CF93DF931F92CDB7DEB7182F5D
:1046E00080E069830E94A329E82FF0E0E856FB4FA1
:1046F000408186E0489FA0011124485A534F6981A8
:10470000812F0F90DF91CF911F910C94CA1CCF93F2
:10471000DF93C82FD62F6091970480919C040E944C
:10472000661DFC01468557856D2F8C2FDF91CF913B
:104730000C94CA1C0F931F93CF93DF9300D0CDB777
:10474000DEB789839A830E94B61F8981082F9A81D8
:10475000192FF8010F5F1F4F8591882319F00E94D0
:10476000831FF7CF0F900F90DF91CF911F910F9183
:104770000C94131FCF93DF931F92CDB7DEB74983FD
:104780000E94281F4981442319F087E59DE002C05B
:104790008EE69DE00F90DF91CF910C949A2380914B
:1047A0000D058EB980910C058DB98FB108950E94C9
:1047B000CF2380E80E94472B86E08FB90E941B150B
:1047C0000E94502B1DB808954F925F926F927F9276
:1047D0008F929F92AF92BF92CF92DF92EF92FF9211
:1047E0000F931F93CF93DF93CDB7DEB729970FB603
:1047F000F894DEBF0FBECDBF2B013C01922E802E60
:104800001AE01E19842F8F77F82EE12EE81A4987B7
:104810000E94B61F498547FF13C077FE0CC08DE28A
:104820000E94831F7094609450944094411C511CCA
:10483000611C711C03C08BE20E94831F00E001C059
:1048400001E0A12EB12CE11608F04AC0CE2CD12CEB
:10485000F601EE0FFF1FEE0FFF1FEB57F24F2591F2
:10486000359145915591C301B2010E94BE3B298308
:104870003A834B835C836D837E838F8398874980E3
:104880005A806B807C808F1008C0002311F080E27A
:1048900001C08EE20E94831F06C09F1004C08EE2FA
:1048A0000E94831F11C0013079F48FEFC81AD80A13
:1048B000CA14DB044CF4411451046104710421F462
:1048C00080E20E94831F05C080E3840D0E94831F45
:1048D00000E04D805E806F807884E394FA94B3CFDB
:1048E00029960FB6F894DEBF0FBECDBFDF91CF91F2
:1048F0001F910F91FF90EF90DF90CF90BF90AF90FE
:104900009F908F907F906F905F904F900C94131FAB
:10491000EF92FF920F931F93CF93DF93C82FD62F61
:10492000F090DC000091A1041091A2040E94281FC5
:104930002F2D30E0D8010E94293C2FEF33E040E0DA
:1049400050E00E94F13BCA01B901772788279927D7
:10495000E12C0FEF21E043E00E94E4236D2F84E07F
:104960008C0F0E94281F8DED9CE0DF91CF911F914D
:104970000F91FF90EF900C949A238091080582305C
:10498000C9F4809107059FEF980F9093070588233E
:1049900069F0E0910505F0910605CF01019690932D
:1049A00006058093050580818CB90895569881E0AD
:1049B0008093080508952F923F924F925F926F92D5
:1049C0007F928F929F92AF92BF92CF92DF92EF929F
:1049D000FF920F931F93CF93DF93CDB7DEB760970E
:1049E0000FB6F894DEBF0FBECDBF382E6A017B0133
:1049F00000910105109102052091030530910405F5
:104A000009871A872B873C8760E079EE84EA95E373
:104A1000A70196010E94F13B29013A0120FF05C040
:104A200011E0411A510861087108A3019201C70100
:104A3000B6010E94133C29853A854B855C850E940E
:104A4000F13B2D873E874F87588B5B016C01E12C32
:104A5000F12C87016983BA82CB82DC82ED82FE82EF
:104A60000F831887262F3B2D4C2D5D2D60E070E0C5
:104A700080E090E005E00E940A3DE12CF12C00E08E
:104A800010E00E942C3D05E00E940A3D00E00E94DB
:104A9000233D05E00E940A3D00E00E942C3D4901B3
:104AA0004983252EB62FA72FF82FE92F05E00E9466
:104AB0000A3D59016A017B018C0194014981522D03
:104AC0006B2F7A2F8F2F9E2F0E94233DC984DA846B
:104AD000EB84FC8456016701E12CF12C8701A9824B
:104AE000BA82CB82DC82ED82FE820F831887E12CB2
:104AF000F12C00E010E00E94AD3C69017A01232C0A
:104B0000312CF101E55CFD4F1081C701B6010E9417
:104B1000D63D20EF3FEF4FE759E40E94353D20E0BE
:104B200030E040E053E40E94643E0E94A73D9B01B8
:104B3000AC018D849E84AF84B8889924AA24BB24B8
:104B400087E0880C991CAA1CBB1C8A95D1F702E04F
:104B5000901AA108B108820E931EA41EB51E97E0FC
:104B6000CC0CDD1CEE1CFF1C9A95D1F76FEF7FEF8C
:104B70008FE090E00E94133CC61AD70AE80AF90AAF
:104B800080EC0E94161F812F0E94AF1E8FEF0E94A3
:104B9000AF1E8FEF0E94AF1EC501B40166277727B5
:104BA000837099270E94AF1E892D0E94AF1E882D09
:104BB0000E94AF1EC701B601662777278F7099271D
:104BC000806F0E94AF1E8D2D0E94AF1E8C2D0E9403
:104BD000AF1E0E94131FF101E75CFD4F10817301AE
:104BE000620124E0C21AD108E1082EEFF20A27E0A0
:104BF000CC0CDD1CEE1CFF1C2A95D1F780EC0E942A
:104C0000161F812F0E94AF1E80E00E94AF1E81E020
:104C10000E94AF1ED701C60188279927A370BB2722
:104C2000CD01AA27BB2734E0431651046104710467
:104C300011F020E001C02CE0822B0E94AF1E8D2DD0
:104C40000E94AF1E8C2D0E94AF1E80E00E94AF1EFE
:104C500080E00E94AF1E80E00E94AF1E0E94131FE2
:104C60008D8560960FB6F894DEBF0FBECDBFDF9185
:104C7000CF911F910F91FF90EF90DF90CF90BF9059
:104C8000AF909F908F907F906F905F904F903F90EC
:104C90002F9008951F93CF93DF931F92CDB7DEB768
:104CA000182F80EC69830E94161F812F0E94AF1E6F
:104CB0006981862F0E94AF1E0F90DF91CF911F91C7
:104CC0000C94131F1F920F920FB60F9211242F9363
:104CD0003F934F935F936F937F938F939F93AF9384
:104CE000BF93EF93FF930E94BD24FF91EF91BF917B
:104CF000AF919F918F917F916F915F914F913F9174
:104D00002F910F900FBE0F901F9018951F920F922A
:104D10000FB60F921124CF92DF92EF92FF920F9372
:104D20001F932F933F934F935F936F937F938F9333
:104D30009F93AF93BF93CF93DF93EF93FF93CCB148
:104D400090910005923009F4ADC018F49130F1F162
:104D50002DC1933019F0943061F028C18C2F90E070
:104D60000E94D13E809315058B3309F41FC184E066
:104D700096C08C2F90E00E94D13E809314058B3317
:104D800009F4EAC0909115059B3491F4893581F4BA
:104D900082E0809300051092130510920F05109287
:104DA0001005109211051092120510920E05FEC00A
:104DB00081E0809300051092130510920F05109268
:104DC00010051092110510921205F0C0EC2FF0E0C2
:104DD000F097EA30F10508F59093130520910F053F
:104DE000309110054091110550911205AAE0B0E0F4
:104DF0000E943F3C8F01FF0F220B330BDC01CB01E4
:104E0000800F911FA21FB31F80930F059093100571
:104E1000A0931105B0931205C9C0CB3309F0C6C0E9
:104E20008091AD049091AE048D5A9440B9F1E09117
:104E3000AF04F091B004A081B181C281D381B98364
:104E4000A8831396DC93CE931297809115058583E2
:104E500080911405868380911305878380910F05C7
:104E6000909110052091110530911205308721870E
:104E70009287838783E08483A091B104B091B204C8
:104E8000B183A08381EB94E0938382831396FC9398
:104E9000EE931297F093B204E093B10483E0809311
:104EA000000584C0C11104C081E080930E057EC05E
:104EB000CB3309F44DC081E080931305C0900F05FA
:104EC000D0901005E0901105F0901205C114D104A6
:104ED000E104F10469F4C03359F41092EA04109229
:104EE000E8041092EB041092E90480E00E94E72F9E
:104EF0000091E70410E0D801A851BB4FF801E6513A
:104F0000FB4F9C918081981778F289E1C816D104F3
:104F1000E104F10448F6D701C6010196A11DB11DB7
:104F200080930F0590931005A0931105B09312057F
:104F30008C2F90E00E94D13E99E1909FF001919FCB
:104F4000F00D1124EB54FB4FEC0DFD1D80832EC0A2
:104F500080910E05882321F081E08093FF049ECF8D
:104F6000809113058823F1F040910F0550911005B1
:104F7000609111057091120542305105610571056E
:104F800008F48CCF8091E70490E0FC01E651FB4FE0
:104F90004083FC01E851FB4F21E020830E94FF2F5A
:104FA00080E001C081E00E94E72F78CFFF91EF9170
:104FB000DF91CF91BF91AF919F918F917F916F9131
:104FC0005F914F913F912F911F910F91FF90EF9023
:104FD000DF90CF900F900FBE0F901F901895CF933A
:104FE000DF93F8942091B1043091B204215B3440F6
:104FF000B9F0E091B304F091B404A081B181C28111
:10500000D381B983A8831396DC93CE9312977894B7
:105010009F012B5F3F4FDC012D933C93848102C0A5
:10502000789480E0DF91CF9108954F925F926F92D4
:105030007F928F929F92AF92BF92CF92EF920F93F7
:10504000CF93C42F96E0899F30011124822E912C9A
:10505000A12CB12C262F30E0D3010E94383CA501B1
:1050600094010E94F13B29012C2F30E0D3010E94D2
:10507000383CA50194010E94F13B5901C0E08C2FFE
:1050800090E08415950588F4A816B90611F48E2DC4
:1050900001C0802F0E94AF1ECF5FF1CFA816B906C6
:1050A00051F48E2D0E94AF1ECF5F8C2F90E086159D
:1050B0009705A0F302C08C2DF5CFCF910F91EF9003
:1050C000CF90BF90AF909F908F907F906F905F90A8
:1050D0004F900895CF92DF92FF920F931F93CF933B
:1050E000DF93182F062FF42E6901CFEDDCE0FE01CF
:1050F00034968491811311C031968491802369F094
:105100003397A591B59196014F2DCE010196FC01E3
:105110006491FE018491FD0109952696FDE0C73555
:10512000DF0729F7DF91CF911F910F91FF90DF905B
:10513000CF9008951F93CF93DF93182FC1E0D0E055
:1051400001C0CC0F6A95EAF720E030E0482F6C2FC1
:1051500081E00E946A2820E030E0412F6C2F82E03D
:10516000DF91CF911F910C946A2868E27DED82E572
:1051700092E0089560E070E0CB01089568E474EF78
:105180008FEF9FEF089520916000E0916100F0E0C3
:10519000EA59F84F849130E1839FC0011124909324
:1051A0007D0080937C0020937F0008958091890288
:1051B000811107C081E090918702911103C080E0C6
:1051C000089581E0089594E0299FF0011124E457A7
:1051D000FD4FE80FF11D8081681710F44083842F84
:1051E0000895CF93DF93282FE82FF0E0EC56FD4F82
:1051F0008081C82FD0E0AE01440F551FC40FD51FCA
:10520000C252DF4F6881615040E00E94E328C80F1E
:10521000D11D8981DF91CF9108958F929F92AF9296
:10522000BF92CF92DF92EF92FF92CF93DF9321E074
:1052300030E0882311F020E030E090E0FC01EE0F38
:10524000FF1FEE0FFF1FDF01A158BB4FCD90DD9078
:10525000ED90FC904C0D5D1D6E1D7F1D46015701AC
:10526000A0E38A1AA5E79A0AA108B108A0E58A1660
:10527000A9E89A06A1E2AA06AAE0BA0630F0D0E3AD
:10528000CD2ED5E7DD2EE12CF12C4A015B01A0E308
:105290008A1AA5E79A0AA108B108A0E58A16A9E822
:1052A0009A06A1E2AA06AAE0BA0610F0B701A60182
:1052B000D901AA0FBB1FAA0FBB1FED01C158DB4FBD
:1052C000488359836A837B83EC01CC56DD4F488148
:1052D000E901CC56DD4F4883EC01C657DD4F4881CC
:1052E000E901C657DD4F4883EC01C856DB4F888182
:1052F000E901C856DB4F8883E457FD4F4081518157
:1053000062817381A457BD4F4D935D936D937C93E0
:105310001397DF91CF91FF90EF90DF90CF90BF90E8
:10532000AF909F908F90089520919B0490919A0246
:10533000213019F084E2890F0895981302C084E2A5
:10534000089585E20895282F80919B0490919A02F8
:10535000813011F0892F089581E0921301C080E01F
:1053600008952EE0829FC0011124FC01E754F24F02
:105370008491807F8033B9F038F48031B9F0803285
:1053800079F081111EC016C0803739F0803891F055
:105390008035B9F480916602089580916502089580
:1053A0008091630005C08091640202C08091620018
:1053B000882329F081E090916502992319F080E01B
:1053C000089581E00895CF92DF92EF92FF920F93BC
:1053D0001F93CF936B017C010DEA1DE0C0E08C2F81
:1053E0000E94B129882371F0F80185919591A591CA
:1053F000B591C816D906EA06FB0620F4C11107C00C
:10540000C2E205C0CF5F025F1F4FC23241F7CC231B
:1054100021F0C23211F0C15001C0C1E28C2F0E94B4
:10542000B1298823A1F38C2FCF911F910F91FF9069
:10543000EF90DF90CF900895CF92DF92EF92FF929E
:105440000F931F93CF936B017C0101EB1DE0C0E034
:105450008C2F0E94B129882351F0F80185919591F4
:10546000A591B591C816D906EA06FB0638F0CF5FBC
:10547000025F1F4FC23261F780E001C08C2FCF91D5
:105480001F910F91FF90EF90DF90CF900895CF92F2
:10549000DF92EF92FF920F931F93CF936B017C01EA
:1054A0000DEA1DE0C0E08C2F0E94B1298823A9F0ED
:1054B000F80185919591A591B5913497C816D906B3
:1054C000EA06FB0650F0349685919591A591B59129
:1054D000C816D906EA06FB0638F0CF5F025F1F4FF9
:1054E000C63209F78FEF01C08C2FCF911F910F911A
:1054F000FF90EF90DF90CF90089529E0829FC00148
:105500001124FC01E558F34F849122E1829FC001F0
:1055100011248F559A4F08954F925F926F927F9208
:10552000AF92BF92CF92DF92EF92FF920F931F93B1
:10553000CF93DF9300D000D0CDB7DEB769837A83F5
:105540008B839C8329013A01CA01B901A801970103
:105550000E94F13B611571058105910541F04E0CEA
:105560005F1C601E711E461A570A680A790A8981F3
:105570009A81AB81BC8184159505A605B70538F0E5
:10558000C301B2014A145B046C047D0410F4C6012B
:10559000B5010F900F900F900F90DF91CF911F9159
:1055A0000F91FF90EF90DF90CF90BF90AF907F90E2
:1055B0006F905F904F9008954F925F926F927F929D
:1055C000AF92BF92CF92DF92EF92FF920F931F9311
:1055D000CF93DF9300D000D0CDB7DEB769837A8355
:1055E0008B839C8329013A01CA01B901A801970163
:1055F0000E94F13B461A570A680A790A89819A8102
:10560000AB81BC81481659066A067B0628F04A140D
:105610005B046C047D0438F0C601B5016E197F0986
:10562000800B910B02C0C301B2010F900F900F903D
:105630000F90DF91CF911F910F91FF90EF90DF902E
:10564000CF90BF90AF907F906F905F904F900895F4
:10565000E0EEF0E090E0DF0112972C91222379F048
:1056600011963C91831739F0223048F02081821343
:1056700006C081E001C080E0FB01908308959F5F38
:105680003396943041F7FB01108280E00895982F03
:105690009C7D21F095B38095892385BB0C94BF1B1D
:1056A00085B38C6D85BB0C94BF1BEF92FF920F935B
:1056B0001F93CF93DF938C017B0180918302C42FD2
:1056C000D0E0813009F10E94CF2380E80E94472B6F
:1056D0000F3F110509F010F483E001C08BE08FB992
:1056E0000E941F150FB90E941B158701CE0DDF1DEB
:1056F000FF24FA940C171D0729F1FFB80E941B150F
:10570000F80181938F01F6CF0E94CF2380E80E9499
:10571000472B83E08FB90E941F151FB90E941F15E8
:105720000FB90E941B158701CE0DDF1DFF24FA94CF
:105730000C171D0739F0FFB80E941B15F801819363
:105740008F01F6CF0E94502B1DB8DF91CF911F9192
:105750000F91FF90EF900895EF92FF920F931F9398
:10576000CF93DF938C017B0180918302C42FD0E023
:105770008130F9F00E94D7230E94CF2380E80E9455
:10578000472B0F3F110509F010F482E001C08AE0B9
:105790008FB90E941F150FB98701CE0DDF1D0C17A1
:1057A0001D0719F1F801F1908F010E941F15FFB834
:1057B000F6CF0E94D7230E94CF2380E80E94472B78
:1057C00082E08FB90E941F151FB90E941F150FB9E3
:1057D0008701CE0DDF1D0C171D0739F0F801F19080
:1057E0008F010E941F15FFB8F6CF0E941B150E9463
:1057F000502B1DB8DF91CF911F910F91FF90EF902B
:1058000008954F925F926F927F928F929F92AF9284
:10581000BF92CF92DF92EF92FF920F931F93CF939D
:10582000DF9300D000D0CDB7DEB7863210F4E82F7A
:1058300001C0E4E29EE0E99FF0011124AF0143556D
:10584000524F9A01285F3F4FF90185909590A5909E
:10585000B59024503109F9014590559065907590A7
:10586000FA01C590D590E590F590FBE08F9F8001FF
:1058700011240C5A1F4F44E0BE016F5F7F4FC801D7
:105880000E94552B69817A818B819C815C2D4D2DE5
:105890003E2D2F2D84149504A604B70448F4C81493
:1058A000D904EA04FB0420F4582D492D3A2D2B2D60
:1058B000641575058605970528F46C157D058E051C
:1058C0009F0578F459834A833B832C8344E0BE01CF
:1058D0006F5F7F4FC8010E94AC2B69817A818B81F9
:1058E0009C810F900F900F900F90DF91CF911F919F
:1058F0000F91FF90EF90DF90CF90BF90AF909F906F
:105900008F907F906F905F904F900895CF93DF932B
:1059100000D000D0CDB7DEB724E0629FF0011124A3
:10592000E158FB4F408151816281738149835A83E1
:105930006B837C832BE0829FC001112444E0BE0175
:105940006F5F7F4F8C5A9F4F0E94AC2B0F900F9030
:105950000F900F90DF91CF910895CF93DF931F9217
:10596000CDB7DEB7698341E0BE016F5F7F4F0E9414
:10597000AC2B89810F90DF91CF910895AF92BF92A8
:10598000CF92DF92EF92FF920F931F93CF93DF930B
:10599000C62FD0E09BE0899F70011124FE01EC56D8
:1059A000FD4F6081C701845A9F4F0E94AD2C5E015C
:1059B000AA0CBB1CAA0CBB1C00E010E0670188E528
:1059C000C80ED11CF501E00FF11FE457FD4F6081B7
:1059D000C601800F911F0E94AD2C0F5F1F4F043036
:1059E000110581F7FE01E657FD4F6081C701835A1B
:1059F0009F4F0E94AD2CC856DB4F6881C701825A69
:105A00009F4FDF91CF911F910F91FF90EF90DF900B
:105A1000CF90BF90AF900C94AD2C4F925F926F924D
:105A20007F928F929F92AF92BF92CF92DF92EF922E
:105A3000FF920F931F93CF93DF93D62FC42F909194
:105A40006702911174C044E0C49F90011124F901D0
:105A5000E158FB4F4F0140805180628073800E946B
:105A6000AC318C0180919C040E94AC319801281BC0
:105A7000390B37FF1EC088279927821B930B092EED
:105A8000000CAA0BBB0BA3019201281B390B4A0B7C
:105A90005B0B60E3A62E65E7B62EC12CD12C1AE075
:105AA000E12EF12C00E010E0C301B2010E948C2A2B
:105AB0001EC021153105D9F1C901330FAA0BBB0B4B
:105AC0009C01AD01240D351D461D571D80E8A82EF3
:105AD0008EEFB82E81E2C82E8AE0D82E1AE0E12E91
