:100000000C9442070C9408100C943E100C945F075B
:100010000C945F070C945F070C945F070C942D0CF5
:100020000C945F070C945F070C94A70D0C945F076A
:100030000C945F070C94F12A0C945F070C94AA2A85
:100040000C94350A0C945F070C945F070C945F07BF
:100050000C945F077E357E35B4359D357E35DD35B4
:10006000DD359235DD35DD35DD35DD357E356D0C43
:100070000A0D220D3C0D350D750D810D460D670DD8
:10008000CE0CD80CDF0C040D710EDE0E290FA90E5C
:10009000F80EC20E900E390F0100000001010001A0
:1000A00001020002000344454144424541460032FA
:1000B000333A34383A3037004E5652414D2066615B
:1000C000756C740045524153453A20507265737304
:1000D0002053504C004B4244206661756C74004CB8
:1000E000434420434F4E540007000001014B00DC05
:1000F0000006000000780066074C4344204C494746
:10010000480007000001010100040007000000771B
:1001100000660744494D4D2054494D000700000535
:10012000010000F00008000000140266074B45596A
:1001300020424545500007020005015000FA001119
:10014000000000760066074946205348494654009F
:100150008402013201000070171300740000006A6D
:10016000074357205049544348000702000A01281A
:1001700000BE0010000000AA00660743572053503D
:1001800045454400070000010104003C0030000028
:10019000007D006607564942524F504C58000700F8
:1001A0000001010000050035000000130266074B46
:1001B00045594552202020000600FC0101000003A3
:1001C00000310000001202660743574B4559524563
:1001D00056000700FF01010000010034000000117B
:1001E0000266074357574549474854000701000135
:1001F0000117002D003200000073006607535041C4
:10020000434557474800070100010107000D00332F
:1002100000000072006607425245414B2D494E00D6
:100220000700FE01010000010027000000710066C8
:100230000743572044454C4159000702000501057A
:1002400000A00028000000700066074D55544520AE
:10025000414C4C000700FF01010000010026000096
:100260000010026607454E432044495653000700DC
:1002700000010101000800380000007F006607420D
:1002800049472053544550000700FF010100000179
:1002900000370000000F02660743415420454E41DD
:1002A00042000700FE010100000100220000006F73
:1002B0000066074341542053504420000700FD01CD
:1002C0000100000600230000006E00660743415451
:1002D0002052545320000700FF01010000010024B8
:1002E0000000000E0266074341542044545220008F
:1002F0000700FF010100000100250000000D02665B
:1003000007524546204652455100090300010200AC
:10031000002F7520006C00000061075354415946BE
:10032000524551000700FE010200000100120000CA
:10033000000C0266074241542043414C490007012A
:100340000001022100FF002F000000A900660753F2
:1003500057522043414C490007020001023200C8B5
:10036000002B0000006B006607465744204C4F5797
:10037000520007000001020100FF032D0069000088
:100380000066075057522043414C490007000001C6
:10039000020000FF002C000000680066075258545D
:1003A0005820444C5900070000050205006400294C
:1003B000000000670066075458525820444C59000A
:1003C0000700000502050064002A000000660066C0
:1003D0000742464F3720555342000702010A060ADA
:1003E0000026751C008B000000000042464F37209D
:1003F0004C5342000702010A0A0A0026751E0089B2
:1004000000000000004841564520302E350007000E
:10041000FF010200000100180000009E0066074373
:100420004E545220302E35000702010A0A0A0026D7
:100430007519009900000000005339204C455645BD
:100440004C0007000001020100FE003900000065B9
:1004500000660753392044454C5441000700000111
:10046000020100FE003A000000640066072B3630EF
:1004700044454C54410007000001020100FE003BCE
:100480000000006300660746524551204650530065
:100490000700000102050019000A00000080006644
:1004A00007534D54522046505300070000010205E7
:1004B0000019000B0000006200660742414E442014
:1004C000323700000700FF0102000001000D0000AC
:1004D000000B02660742414E4420424300000700E1
:1004E000FF0102000001000C0000000A026607453F
:1004F0004E432052455300000700FA010200000954
:10050000000400000061006607454E432044594E38
:1005100000000700FE01020000010005000000606D
:100520000066070001010101000000000101000058
:1005300000000001010101010102030203010101A8
:1005400001101B0200707C0400E86E03006504B813
:10055000DB070090CF180000F915006504B8631B95
:100560000018BF1E00509E1B000104482D35005886
:10057000363A00E0673500010460823B0000093D27
:100580000060823B007504B07A4800A0354D00B091
:100590007A48007504D06E5700D80D6000D06E57B1
:1005A00000750410226900B0A86A00102269007565
:1005B0000428956A0098176E00C0CF6A00010400F5
:1005C000DD6D0080F7730000DD6D007504D0248DB3
:1005D00000E00F9700D0248D00750488E299000890
:1005E0001B9B00201D9A008204E079AF00008CB9AB
:1005F00000E079AF007504D00FCF00B0A3D300D0D6
:100600000FCF007504E864D5004831DB00809FD52A
:10061000000004F056E500C016F100F056E5007544
:100620000440B90A01E021110140B90A01750488AA
:100630007713015873150120B21301800420642040
:1006400001E0382201206420017504A8344001A88B
:10065000874701406F40010004104D470190674DEE
:1006600001104D47017504F88F7B01C88B7D019007
:10067000CA7B01800470B1870120418E0170B1876F
:1006800001750470399B016065A20180D19D015004
:10069000046804AB010021B001003FAB010200007F
:1006A00021B001808EBD0120E0B2010000808EBD2E
:1006B00001386AC50100A9C301000030750000C0FF
:1006C000E1E400883F4C006004C0E1E4000048E839
:1006D00001C0EA21016004307500000048E801F023
:1006E000446B006004307500000048E801F0446B82
:1006F0000060040000000040004040002020202056
:100700000020202000010501005B010100400000E5
:1007100040000000010000010505006401010040E7
:100720000040400000000000000A140500460301DC
:1007300000400040400000000000001919A8FDC65C
:1007400003010040004040000000000000010500DF
:100750000054010100400040400000000000000182
:1007600001000016010100400040400000010100AE
:100770000001050500550101004000404000000057
:100780000000000105050064010100400040400038
:1007900000000000004B5925633B004B53253033CC
:1007A000643B005458253031643B0052583B0041B3
:1007B000492531643B005053253031643B00534D93
:1007C00030253034643B0052412530326430303BB8
:1007D00000504125303164303B00524D31253034DA
:1007E000643B00524D32253034643B00524D33257A
:1007F0003034643B005054253032643B0049462578
:100800003031316C6420202020202B3030303030CB
:10081000302030302531642531643030253164306A
:100820003030203B004625303264004143530045C0
:100830004C45004F4646004255470001020408104F
:10084000203006081018192024404B644F666600BB
:100850004F6E20004E6F200059657300322E370016
:10086000302E350030313233343536373839414265
:1008700043444546003031323334353637383961F8
:10088000626364656600000001010101010000006F
:10089000000000000000FA00000000E000E000009E
:1008A00028FE28FE28002454FE544800C4C8102600
:1008B00046006C926A040A000010E0C00000003894
:1008C0004482000000824438000024187E1824006E
:1008D00010107C10100000010E0C00001010101001
:1008E00010000000060600000408102040007C8A6A
:1008F00092A27C000042FE02000042868A926200C0
:100900008482A2D28C00182848FE0800E4A2A2A289
:100910009C007C9292924C00808E90A0C0006C92C1
:1009200092926C00649292927C0000002800000079
:1009300000022C00000000102844820028282828EB
:10094000280000824428100040809A9060007C8239
:10095000BA9A72003E4888483E00FE9292926C001D
:100960007C8282824400FE8282443800FE9292920F
:100970008200FE90909080007C82828ACE00FE10E1
:100980001010FE000082FE820000040282FC800043
:10099000FE1028448200FE0202020200FE4038409F
:1009A000FE00FE201008FE007C8282827C00FE9009
:1009B000909060007C828A847A00FE909894620015
:1009C000649292924C008080FE808000FC020202C1
:1009D000FC00F8040204F800FC021C02FC00C6281B
:1009E0001028C600C0201E20C000868A92A2C20025
:1009F00000FE828282004020100804000082828271
:100A0000FE0020408040200002020202020000801E
:100A100040200000042A2A2A1E00FE1422221C0064
:100A20001C22222200001C222212FE001C2A2A2A3A
:100A3000180000107E904000182525251E00FE108D
:100A400020201E000022BE020000040202BC0000A2
:100A5000FE08142200000082FE0200003E201E203C
:100A60001E003E1020201E001C2222221C003F24BB
:100A700024241800182424183F003E1020201000C1
:100A8000122A2A2A04002020FC2224003C0202040C
:100A90003E003804020438003C020C023C002214E0
:100AA00008142200320909093E0022262A322200B7
:100AB00000106C8200000000EE00000000826C104C
:100AC00000004080402040003C64C4643C001F3F64
:100AD0007F706060707F3F1F0000FCFEFF07030314
:100AE00007FFFEFC000000000C1C3C7F7F7F000025
:100AF00000000000000707FFFFFF070700001C3C85
:100B00007C706060717F3F1F0000070F1F3F7FF701
:100B1000E7C787070000183878706161717F3F1E52
:100B200000000C0E0F07C3C3C7FFFE7C00000307C5
:100B30000F1E3C787F7F7F000000F0F0F070707037
:100B4000FFFFFF7000007F7F7F737373737371000B
:100B500000008C8E8F87030387FFFEFC00001F3F81
:100B60007F716161717938180000FCFEFFC78383D3
:100B7000C7FFFE7C0000707070707071737F7F7CA7
:100B80000000001F3F7FF0E0C080000000001E3F1B
:100B90007F736161737F3F1E00003C7EFFC78383CC
:100BA000C7FF7E3C00001F3F7F716060717F3F1F69
:100BB00000000C8ECFC7C3C3C7FFFEFC00000000BF
:100BC00000000000000000000000070707070707FB
:100BD00007070707000000000000000000000000F9
:100BE0000000000000000000000000000000000005
:100BF00000000000000000000000000000000000F5
:100C000000070707000000010303030301000000C1
:100C1000FCFE87030387FEFC0000000000010303C5
:100C2000000000000000C0C3FFFF0300000001033C
:100C30000303030303010000C3C70F1F3B73E3C398
:100C4000000001030303030303010000868703334D
:100C50003333FFFE00000000000103030300000027
:100C60003C7CECCC8CFFFF0C00000303030303036C
:100C700003030000E6E7636363637F3E0000010354
:100C80000303030303010000FEFF33333333BF9E2E
:100C900000000303030303030303000000070F1C0A
:100CA0003870E0C0000001030303030303010000E8
:100CB000FEFF33333333FFFE00000103030303035E
:100CC00003010000E6F733333333FFFE000000007A
:100CD00000000000000000000303030303030303FC
:100CE0000000000000000000000000000000000004
:100CF0000000000000009600860052580054580082
:100D000020202020004C4F434B00000020202000DA
:100D100000015052450000002020200001004154F5
:100D20005400004C50000000014850000000000139
:100D30000200005553420001010100004C534200E3
:100D4000000003F40143572000010007F40143575A
:100D500052000205FF000043575A0002020500003E
:100D6000414D20000204FF000044524D00010609DD
:100D7000000044474C0002060600004447550000AE
:100D800007FF00004953420056000000742800018C
:100D900003003A28000107009B2800010A00692887
:100DA00000011300B92800010001EB240101130226
:100DB0005528000102043C28000108047F24020198
:100DC00013047D28000100055F2800010305752A32
:100DD00004010905392800010C053B280001000623
:100DE0001E2D03010007EC2800010000351E0180C4
:100DF0000001601B008004015D1B00801000692859
:100E0000008031207C2032207C203320302520209F
:100E1000207C203130302520002031203320352027
:100E2000372039202B20323020343020363020003B
:100E300000CA9A3B00E1F5058096980040420F00F9
:100E4000A086010010270000E803000064000000F5
:100E50000A000000010000004944253033643B00D3
:100E60004641253031316C643B00464225303131FA
:100E70006C643B004D442531643B004657253034BB
:100E8000643B000011241FBECFE5D8E0DEBFCDBF1C
:100E900012E0A0E6B0E0EEEAF9E702C005900D929C
:100EA000AA30B107D9F724E0AAE0B2E001C01D9250
:100EB000A83CB207E1F70E9477300C94D53C0C9423
:100EC000000068E27DED82E592E0089560E070E068
:100ED000CB01089568E474EF8FEF9FEF0895CF92F0
:100EE000DF92EF92FF9269017A01F694E794D7942A
:100EF000C7946C0D7D1D8E1D9F1D0E94D03ACA01A6
:100F0000B901FF90EF90DF90CF900895209160009D
:100F1000E0916100F0E0EE5BF74F849130E1839F58
:100F2000C001112490937C0080937B0020937E006D
:100F3000089580912F02811107C081E090912D02C8
:100F4000911103C080E0089581E0089594E0299F05
:100F5000F0011124EE5CFD4FE80FF11D8081681750
:100F600010F44083842F0895CF93DF93282FE82F28
:100F7000F0E0E65CFD4F808194E0899FE001112460
:100F8000C555DF4F6881615040E00E94A607C80F39
:100F9000D11D8981DF91CF9108958F929F92AF9259
:100FA000BF92CF92DF92EF92FF92CF93DF9321E037
:100FB00030E0882311F020E030E090E0FC01EE0FFB
:100FC000FF1FEE0FFF1FDF01A55CBB4FCD90DD9033
:100FD000ED90FC904C0D5D1D6E1D7F1D460157016F
:100FE000A0E38A1AA5E79A0AA108B108A0ED8A161B
:100FF000A2ED9A06A7EEAA06A1E0BA0630F0D0E369
:10100000CD2ED5E7DD2EE12CF12C4A015B01A0E3CA
:101010008A1AA5E79A0AA108B108A0ED8A16A2EDDE
:101020009A06A7EEAA06A1E0BA0610F0B701A6013B
:10103000D901AA0FBB1FAA0FBB1FED01C55CDB4F77
:10104000488359836A837B83EC01C65CDD4F48810A
:10105000E901C65CDD4F4883EC01C05DDD4F48818E
:10106000E901C05DDD4F4883EC01C15BDB4F888146
:10107000E901C15BDB4F8883EE5CFD4F408151810C
:1010800062817381AE5CBD4F4D935D936D937C9394
:101090001397DF91CF91FF90EF90DF90CF90BF90AB
:1010A000AF909F908F9008952091520490914002AC
:1010B000213019F08DE1890F0895981302C08DE158
:1010C00008958EE10895282F809152049091400256
:1010D000813011F0892F089581E0921301C080E0E2
:1010E00008952EE0829FC0011124FC01E35BFA4FBA
:1010F0008491807F803591F018F4882329F011C005
:10110000803749F0803869F481E090910A02992390
:1011100049F080E0089580910A02089580910B02C1
:10112000089581E00895CF92DF92EF92FF920F939E
:101130001F93CF936B017C0101E415E0C0E08C2F7D
:101140000E947108882371F0F80185919591A5910D
:10115000B591C816D906EA06FB0620F4C11107C0EE
:10116000CBE105C0CF5F025F1F4FCB3141F7CC23EE
:1011700021F0CB3111F0C15001C0CAE18C2F0E9487
:1011800071088823A1F38C2FCF911F910F91FF90AD
:10119000EF90DF90CF900895CF92DF92EF92FF9281
:1011A0000F931F93CF936B017C0105E415E0C0E022
:1011B0008C2F0E947108882351F0F8018591959138
:1011C000A591B591C816D906EA06FB0638F0CF5F9F
:1011D000025F1F4FCB3161F780E001C08C2FCF91B0
:1011E0001F910F91FF90EF90DF90CF900895CF92D5
:1011F000DF92EF92FF920F931F93CF936B017C01CD
:1012000001E415E0C0E08C2F0E9471088823A9F04A
:10121000F80185919591A591B5913497C816D90695
:10122000EA06FB0650F0349685919591A591B5910B
:10123000C816D906EA06FB0638F0CF5F025F1F4FDB
:10124000CF3109F78FEF01C08C2FCF911F910F91F4
:10125000FF90EF90DF90CF90089529E0829FC0012A
:101260001124FC01E15DF24F849122E1829FC001D3
:1012700011248B5F984F0895109205048091060405
:10128000882329F01092060481E0809307040895D2
:101290004F925F926F927F92AF92BF92CF92DF9206
:1012A000EF92FF920F931F93CF93DF9300D000D064
:1012B000CDB7DEB769837A838B839C8329013A019A
:1012C000CA01B901A80197010E94D03A61157105C0
:1012D0008105910541F04E0C5F1C601E711E461A7F
:1012E000570A680A790A89819A81AB81BC81841581
:1012F0009505A605B70538F0C301B2014A145B0491
:101300006C047D0410F4C601B5010F900F900F908E
:101310000F90DF91CF911F910F91FF90EF90DF9091
:10132000CF90BF90AF907F906F905F904F90089557
:101330004F925F926F927F92AF92BF92CF92DF9265
:10134000EF92FF920F931F93CF93DF9300D000D0C3
:10135000CDB7DEB769837A838B839C8329013A01F9
:10136000CA01B901A80197010E94D03A461A570A4A
:10137000680A790A89819A81AB81BC81481659062D
:101380006A067B0628F04A145B046C047D0438F07E
:10139000C601B5016E197F09800B910B02C0C30114
:1013A000B2010F900F900F900F90DF91CF911F918E
:1013B0000F91FF90EF90DF90CF90BF90AF907F9014
:1013C0006F905F904F9008954BEA50E020E0FA0153
:1013D000319190E0931759F0933049F0A191A813FF
:1013E00004C0FB012083892F08959F5FF3CF2F5FF7
:1013F0004C5F5F4F233059F7FB01108280E0089566
:101400001F93CF93DF931F92CDB7DEB7182F80ECD9
:1014100069830E944824812F0E94E1236981862FDD
:101420000E94E1230F90DF91CF911F910C944524EE
:10143000F8942091890330918A03232B61F0E09185
:10144000880394E0E99FF0011124E058FE4F908159
:10145000982381E009F480E078940895779BFECF8B
:101460008FB10895779BFECF08951F920F920FB60C
:101470000F9211244F925F926F927F92AF92BF9220
:10148000CF92DF92EF92FF920F931F932F933F9390
:101490004F935F936F937F938F939F93AF93BF937C
:1014A000EF93FF93CF93DF9300D0CDB7DEB784B136
:1014B00095B1E0918703AE2FB0E0A758BE4FAC9135
:1014C000B0E0AA0FBB1FA055BC4F11969C938E9302
:1014D000EF5FE0938703E73008F450C1F090830397
:1014E00060E2A62E62E0B62E04E514E0C12CD12CF9
:1014F000E12C78EE472E73E0572E612C712CF6010B
:10150000EE0FFF1FE055FC4F80819181F501219185
:101510005F012130F9F018F0223029F043C0F801C2
:10152000918380833FC0F8012081318128173907DA
:1015300058F0A1EEB3E00E94083BA30192010E9483
:10154000D03A622F832F02C0682F892FF801608361
:10155000818328C0EF2DF0E0EE0FFF1FED5FFC4F01
:1015600091838083F394FFE3FF1508F4F12CE3E00B
:10157000F3E040E050E0BA0181919191480F591F8A
:10158000611D711D23E0E338F207B1F736E076956F
:101590006795579547953A95D1F7F8015183408360
:1015A000EE24E394FFEFCF1ADF0A0E5F1F4F28E00F
:1015B000C216D10409F0A3CFE110F0928303209169
:1015C000BE033091BF03AFE0B0E00E94083BCC24E3
:1015D000CA9423E0D22EE12CF12CA70196010E949F
:1015E000D03AE22FF0E0E759FE4F80818F3FA9F417
:1015F0002091BC033091BD03AFE0B0E00E94083BF6
:10160000A70196010E94D03AE22FF0E0E759FE4F81
:1016100080818F3F39F021E001C020E0220F220FAE
:10162000280F01C02FEF8091890390918A032F3FEB
:1016300009F470C08330910520F030918803321393
:1016400013C04091840350918503452B21F08330D2
:10165000910598F4DDC0009739F08330910568F466
:1016600030918803321749F02093880381E090E09D
:1016700090938A03809389035BC026E030E0309327
:101680008503209384032091880344E0249F9001E4
:101690001124F901E058FE4F408140FF0FC0019630
:1016A00090938A038093890388379105D1F0883C11
:1016B000910509F06BC088E790E00FC044FF1AC0A5
:1016C000019690938A03809389038832910549F0AB
:1016D000CC9709F05BC088E290E090938A038093F6
:1016E0008903F901E058FE4F118110928503109291
:1016F000840361C041FD4AC08837910508F046C0A7
:10170000019690938A038093890388379105F1F5B8
:10171000128151C020918403309185032115310538
:10172000A9F18330910548F410928A03109289033D
:10173000109285031092840329C0215031093093FF
:10174000850320938403232B09F5E091880324E08B
:10175000E29FF0011124E058FE4F208121FD16C0C8
:101760008837910530F4118110928A031092890311
:1017700022C010928A031092890308C0F0E0E75853
:10178000FE4F8081806487B9369A46C08091860377
:10179000882369F0815080938603811108C080916D
:1017A0002804882321F0109228040E944A2381E013
:1017B0008093280231C085E08093860380912804BD
:1017C000813029F081E0809328040E944A23CE01D1
:1017D00001960E94CE2A892B51F3E981FA81108368
:1017E000E981FA81359782E08483A0916804B09101
:1017F0006904B183A08388E694E09383828313967F
:10180000FC93EE931297F0936904E0936804CFCFB2
:10181000009709F025CF28CF0F900F90DF91CF913F
:10182000FF91EF91BF91AF919F918F917F916F91B8
:101830005F914F913F912F911F910F91FF90EF90EA
:10184000DF90CF90BF90AF907F906F905F904F9060
:101850000F900FBE0F901F9018951F920F920FB60A
:101860000F9211241F932F933F934F935F936F9386
:101870007F938F939F93AF93BF93CF93DF93EF9318
:10188000FF9380913704882319F0815080933704A7
:101890008091380430913904831758F48F5F809316
:1018A000380421E090E0831708F420E0C22FD92FFC
:1018B00002C0C1E0D0E080918D030E94C323182FA5
:1018C000E0913A048E2F90E08D30910508F02BC105
:1018D000FC01E95CFF4F0C94023B0E94CB220E946A
:1018E000712E80E00E94592E21E030E080919E040C
:1018F000882311F020E030E0F901EF55FB4F4081E3
:10190000D901A156BB4F59E1529FC001539F900D81
:10191000112484599B4F2C91241708F0F8C031E012
:10192000320F3C93FC01E20FF11DE081E03249F4FB
:10193000341750F4FC01E30FF11D2081203221F413
:10194000EACFE11102C0E3C0E0E2E152EF3340F43C
:10195000F0E0EE0FFF1FE551FF4F8081918102C043
:1019600083E090E0909302038093010383709927B2
:101970008230910539F08330910541F0019709F0EB
:10198000D2C037C060918B038AE005C080918C0380
:1019900068E7681B8CE00E94A222C5C0CD2B09F429
:1019A000C2C060918C0380913404681B8BE0A4C09A
:1019B000CD2B09F4B8C060918C038BE073C0CD2BA4
:1019C00009F4B1C080910103909102039695879527
:1019D00096958795909302038093010383709927CE
:1019E0008130910531F060918B03029741F48AE0D8
:1019F00059C08091340464E1681B89E07DC0809106
:101A00008C03681B8CE04EC0CD2B09F48CC060E0C9
:101A100080E0C1CFCD2B61F060918C0380913404C4
:101A2000681B87E00E94A22288E08093370466C08A
:101A3000812F0E94A922882309F475C084E0809335
:101A40003A0432C0CD2B49F060918C0387E00E94AC
:101A5000A22288E08093370466C0812F0E94B922B9
:101A6000882309F460C083E02FC0CD2B09F45BC04C
:101A700060918C0386E08FCFCD2B09F454C0609128
:101A80008C0380913404681B85E036C0CD2B79F03F
:101A90008091360482FFBBCF60918B0380918C03D1
:101AA000681B88E00E94A2220E94CB223CC0812FAA
:101AB0000E94B922882311F085E006C0812F0E9480
:101AC000A922882381F186E080933A042CC0CD2B93
:101AD00009F09DCF812F0E94A9228111F4CF812F7F
:101AE0000E94B9228111E8CF1EC0CD2BE1F0809178
:101AF000340464E1681B81E00E94A2220E94D0228B
:101B000012C0CD2B81F060918B0382E044CF812FF6
:101B10000E94A9228111F7CF812F0E94B922882328
:101B200011F064E1E8CFFF91EF91DF91CF91BF9188
:101B3000AF919F918F917F916F915F914F913F9165
:101B40002F911F910F900FBE0F901F9018951F920D
:101B50000F920FB60F9211240F931F932F933F9361
:101B60004F935F936F937F938F939F93AF93BF93A5
:101B7000EF93FF93CF93DF9300D01F92CDB7DEB7E3
:101B800080918D030E94C323E0913A04F0E0ED5D63
:101B9000FA4F949191111EC081FF04C090913604B8
:101BA00090FD18C080FF04C08091360481FD12C0F2
:101BB00080911E02882389F080910D02882369F0AC
:101BC00086B386958695869591E08927082F0170C2
:101BD00010E005C001E010E002C000E010E0802F3E
:101BE0000115110581F090912004992361F09091E5
:101BF0002304992341F020911B0230911C02309361
:101C00001F0420931E0490910A04F801E90FF11DAE
:101C1000E90FF11DEF5CFA4F9491E0918100F09192
:101C20008200E90FF11D9491992311F001E010E079
:101C300090912904901731F0009329048B830E941E
:101C40004A238B8120911E0430911F0421153105F8
:101C500031F02150310930931F0420931E0420914C
:101C60002104309122042115310531F02150310930
:101C700030932204209321040E94C12580911B04EB
:101C800090911C048917F9F0A82FA695A695A69502
:101C9000B0E0A55FBB4FE82FE770F0E0E251FE4FE8
:101CA0002C919081922321E009F420E090E00196AC
:101CB0008F77992780931B0480911D04821B80934A
:101CC0001D04822F01C080E0E0910A044E2F50E0F5
:101CD0004830510508F0E4C0FA01EC5BFF4F0C946A
:101CE000023BE0910A04F0E0EE0FFF1FEF5CFA4FB9
:101CF0008491E0918300F0918400E80FF11D8491BC
:101D00000E94BD230E94A225882309F4C9C08091A6
:101D100018028093EB02882309F468C081E0A6C012
:101D2000E0910A04F0E0EE0FFF1FEF5CFA4F8491A0
:101D3000E0918300F0918400E80FF11D84910E94EE
:101D4000BD238091EB0281508093EB028111A8C0EA
:101D50007CC0E0910A04F0E0EE0FFF1FEF5CFA4F49
:101D60008491E0918300F0918400E80FF11D84914B
:101D70000E94BD238091EB0281508093EB02811180
:101D80008FC071C0E0910A04F0E0EE0FFF1FEF5C1E
:101D9000FA4FE80FF11D8491E0918300F0918400E7
:101DA000E80FF11D84910E94BD238091EB028150C8
:101DB0008093EB02882309F442C072C0E0910A04C8
:101DC000F0E0EE0FFF1FEF5CFA4F8491E09183008B
:101DD000F0918400E80FF11D84910E94BD23809151
:101DE000EB0281508093EB0281115AC082E03EC029
:101DF000E0910A04F0E0EE0FFF1FEF5CFA4FE80FEE
:101E0000F11D8491E0918300F0918400E80FF11DB1
:101E100084910E94BD230E94A225811141C080911E
:101E20000904882361F08091EB0290E02091160272
:101E3000309117028217930711F485E017C0809143
:101E400019028093EB02811102C087E00FC086E087
:101E50000DC080912A02882319F180911A02809383
:101E6000EB02811102C084E001C083E080930A0488
:101E700017C0E0910A04F0E0EE0FFF1FEF5CFA4F8D
:101E80008491E0918300F0918400E80FF11D84912A
:101E90000E94BD2380912A02811102C010920A047F
:101EA0002091F8023091F9021092F9021092F80292
:101EB0008091F6029091F702820F931F9093F702A0
:101EC0008093F6028091F50290E0FC01EE0FFF1F77
:101ED000E351FD4F37FF03C0319521953109408112
:101EE0005181240F351F318320832091EC022F5F15
:101EF000293118F42093EC020EC01092EC020196E6
:101F0000837099278093F502880F991FFC01E35194
:101F1000FD4F118210828091FC029091FD0210927F
:101F2000FD021092FC022091FA023091FB02820F16
:101F3000931F9093FB028093FA0280913D028823C5
:101F400019F0815080933D028091FE02882319F0A0
:101F500081508093FE028091C5049091C604009741
:101F600029F001979093C6048093C5048091C7041B
:101F7000882319F081508093C7048091FF029091CB
:101F800000030196883C910528F490930003809308
:101F9000FF0221C0109200031092FF02CE010196B1
:101FA0000E94CE2A892BB9F0E981FA81359781E028
:101FB0008483A0916804B0916904B183A08388E60A
:101FC00094E0938382831396FC93EE931297F0939D
:101FD0006904E09368041092870382E487B9369A13
:101FE0000F900F900F90DF91CF91FF91EF91BF91E4
:101FF000AF919F918F917F916F915F914F913F91A1
:102000002F911F910F910F900FBE0F901F90189559
:102010001F920F920FB60F9211242F933F938F931D
:102020009F93EF93FF9380B38C7090E09695879584
:102030009695879520911502FC0134E0239FE00DD1
:10204000F11D1124E552FF4F90812091F80230914B
:10205000F902291B310997FD33953093F90220933A
:10206000F80280931502FF91EF919F918F913F911C
:102070002F910F900FBE0F901F9018951F920F92E7
:102080000FB60F9211242F933F934F935F936F934B
:102090007F938F939F93AF93BF93EF93FF930E9490
:1020A0000810FF91EF91BF91AF919F918F917F9118
:1020B0006F915F914F913F912F910F900FBE0F90B5
:1020C0001F901895000000000895982F9C7D21F026
:1020D00095B38095892385BB0C94621085B38C6D74
:1020E00085BB0C946210EF92FF920F931F93CF93D6
:1020F000DF938C017B0180912902C42FD0E08130D5
:1021000011F183E00E94012980E80E9465100F3FD1
:10211000110509F010F483E001C08BE08FB90E9433
:10212000320A0FB90E942E0A8701CE0DDF1DFF244F
:10213000FA940C171D0731F1FFB80E942E0AF8011E
:1021400081938F01F6CF83E00E94012980E80E94ED
:10215000651083E08FB90E94320A1FB90E94320ACB
:102160000FB90E942E0A8701CE0DDF1DFF24FA94BD
:102170000C171D0739F0FFB80E942E0AF801819351
:102180008F01F6CF0E946E101DB8DF91CF911F9185
:102190000F91FF90EF900895EF92FF920F931F938E
:1021A000CF93DF938C017B0180912902C42FD0E073
:1021B000813001F10E940C2983E00E94012980E80E
:1021C0000E9465100F3F110509F010F482E001C074
:1021D0008AE08FB90E94320A0FB98701CE0DDF1D48
:1021E0000C171D0721F1F801F1908F010E94320AAE
:1021F000FFB8F6CF0E940C2983E00E94012980E8F5
:102200000E94651082E08FB90E94320A1FB90E94B5
:10221000320A0FB98701CE0DDF1D0C171D0739F0EB
:10222000F801F1908F010E94320AFFB8F6CF0E94A8
:102230002E0A0E946E101DB8DF91CF911F910F9151
:10224000FF90EF9008954F925F926F927F928F92DE
:102250009F92AF92BF92CF92DF92EF92FF920F9335
:102260001F93CF93DF9300D000D0CDB7DEB78F316F
:1022700010F4E82F01C0EDE19EE0E99FF001112488
:10228000AF014F5B5A4F9A01285F3F4FF90185908C
:102290009590A590B59024503109F901459055903D
:1022A00065907590FA01C590D590E590F590FAE0AB
:1022B0008F9F80011124045B1F4F44E0BE016F5FBC
:1022C0007F4FC8010E94731069817A818B819C8144
:1022D0005C2D4D2D3E2D2F2D84149504A604B7049E
:1022E00048F4C814D904EA04FB0420F4582D492DFD
:1022F0003A2D2B2D641575058605970528F46C1568
:102300007D058E059F0578F459834A833B832C8392
:1023100044E0BE016F5F7F4FC8010E94CC1069810D
:102320007A818B819C810F900F900F900F90DF919D
:10233000CF911F910F91FF90EF90DF90CF90BF90C2
:10234000AF909F908F907F906F905F904F90089587
:10235000CF93DF9300D000D0CDB7DEB724E0629FEB
:10236000F0011124E55CFB4F408151816281738152
:1023700049835A836B837C832AE0829FC0011124A6
:1023800044E0BE016F5F7F4F845B9F4F0E94CC1083
:102390000F900F900F900F90DF91CF910895CF93F2
:1023A000DF931F92CDB7DEB7698341E0BE016F5F57
:1023B0007F4F0E94CC1089810F90DF91CF910895BB
:1023C000AF92BF92CF92DF92EF92FF920F931F9343
:1023D000CF93DF93C62FD0E09AE0899F700111243C
:1023E000FE01E65CFD4F6081C7018D5A9F4F0E9440
:1023F000CF115E01AA0CBB1CAA0CBB1C00E010E0B4
:10240000670180E5C80ED11CF501E00FF11FEE5CFD
:10241000FD4F6081C601800F911F0E94CF110F5F99
:102420001F4F0330110581F7FE01E05DFD4F608114
:10243000C7018C5A9F4F0E94CF11C15BDB4F68814F
:10244000C7018B5A9F4FDF91CF911F910F91FF9042
:10245000EF90DF90CF90BF90AF900C94CF114F9240
:102460005F926F927F928F929F92AF92BF92CF9224
:10247000DF92EF92FF920F931F93CF93DF93D62FAC
:10248000C42F90910C02911173C044E0C49F90013D
:102490001124F901E55CFB4F4F01408051806280BF
:1024A00073800E9454308C01809153040E945430F8
:1024B0009801281B390B37FF1EC088279927821BDC
:1024C000930B092E000CAA0BBB0BA3019201281B36
:1024D000390B4A0B5B0B60E3A62E65E7B62EC12CC9
:1024E000D12C1AE0E12EF12C00E010E0C301B20182
:1024F0000E9448091DC021153105D1F1C901330FD2
:10250000AA0BBB0B9C01AD01240D351D461D571DAB
:10251000A12C88E4B82E88EEC82EDD24D3941AE0CE
:10252000E12EF12C00E010E0C301B2010E949809F5
:10253000F40160837183828393838D2F0E945408FA
:10254000D82F6C2F0E94E0116C2F8D2FDF91CF912F
:102550001F910F91FF90EF90DF90CF90BF90AF90C1
:102560009F908F907F906F905F904F900C94A811E8
:102570008D2F0E9454086C2FDF91CF911F910F91E6
:10258000FF90EF90DF90CF90BF90AF909F908F9093
:102590007F906F905F904F900C94E011EF92FF92BC
:1025A0000F931F93CF93DF9300D0CDB7DEB77C019D
:1025B000162F042F41E0BE016F5F7F4F2A830E94D8
:1025C000731089812A81021718F0622F211708F4ED
:1025D000612F081710F0811718F4C7010E94CF115E
:1025E0000F900F90DF91CF911F910F91FF90EF907F
:1025F00008954F925F926F927F92AF92BF92CF9267
:10260000DF92EF92FF920F931F93CF93DF931F926E
:10261000CDB7DEB7082FE62EF12C0E94231157010B
:10262000AA0CBB1CAA0CBB1C9501255C3B4F690185
:10263000F9016083718382839383FAE00F9F8001A5
:10264000112420E040E060E0C8018C5A9F4F0E94B6
:10265000CE12F701E05DFD4F808320E043E060E0B3
:10266000C8018B5A9F4F0E94CE12F701E15BFB4FCE
:102670008083F6014080518062807380C301B20183
:102680000E94F7088B3148F42EE0829FF00111245C
:10269000E35BFA4F84918F700AC081E030E4431607
:1026A00034E5530639E86306710408F080E0BE01A2
:1026B0006F5F7F4F0E94E409C980D12CF601EE0FB5
:1026C000FF1FEE0FFF1FE555FF4F40814150F801FE
:1026D000EC0DFD1D282F60E0CF01805B9F4F0E9415
:1026E000CE1295012E5C3D4FF901EC0DFD1D80834E
:1026F000298142E060E0C8018D5A9F4F0E94CE12AE
:10270000F701E65CFD4F8083EE0CFF1CEE0CFF1C16
:10271000C12CD12C005B1F4F2FEF4FEF60E0C801A1
:102720008C0D9D1D0E94CE12F601EE0DFF1DEE5C7C
:10273000FD4F80838FEFC81AD80A93E0C916D104E1
:1027400059F70F90DF91CF911F910F91FF90EF906C
:10275000DF90CF90BF90AF907F906F905F904F9041
:1027600008952F923F924F925F926F927F928F9235
:102770009F92AF92BF92CF92DF92EF92FF920F9310
:102780001F93CF93DF934B015C01F42E690141E16C
:10279000242EC1E0D0E0312C4E2C512C612C712C18
:1027A00096012C233D23232B11F19E0140E050E0A4
:1027B000C501B4010E94D03ABA01A90144195509D2
:1027C00066097709DB01CA0120E00097A105B10580
:1027D00031F0B695A795979587952F5FF6CFF216AE
:1027E00028F0F80151834083832D13C03394CC0F1C
:1027F000DD1F2A942110D4CF81E090E002C0880F21
:10280000991FFA94E2F70197F801918380838FEF83
:10281000830DDF91CF911F910F91FF90EF90DF908B
:10282000CF90BF90AF909F908F907F906F905F9070
:102830004F903F902F9008959B01AC0160E074EBA6
:1028400084EC94E00C946F079B01AC0160E072E1B2
:102850008AE790E00C946F078F929F92AF92BF929D
:10286000CF92DF92EF92FF920F931F93CF93DF935C
:10287000EC01F894EDEEF2E0A081B18182819381C8
:10288000A80FB91F84819581A80FB91F86819781F0
:10289000A80FB91FE091EC02F0E0E55BFF4F062FB7
:1028A00010E08091E9029091EA02089F7001099F6F
:1028B000F00C189FF00C11248091F6029091F70211
:1028C000E80EF91E1092F7021092F6021092EA0238
:1028D0001092E9027894C0907B00D0907C0020E0B8
:1028E00035E644E050E00E941E3B4B015C019F0135
:1028F000D6010E94083B9B01AC01C501B4010E94B6
:10290000D03A398328838091020490910304B8015E
:102910008E0D9F1D0E94893A9093030480930204B8
:10292000CB01DF91CF911F910F91FF90EF90DF903E
:10293000CF90BF90AF909F908F9008951092030416
:1029400010920204F8941092F7021092F60210927C
:10295000EA021092E902EDEEF2E017821682158289
:10296000148213821282118210821092EC027894E7
:102970000895CF93DF93EA010E945A24CE01DF919C
:10298000CF910C94CC28BC014BE090E0242F30E098
:10299000291B310937FF02C02F5F3F4F359527951F
:1029A000892F820F282F30E0F901EE0FFF1FED5322
:1029B000FF4F0190F081E02D6E177F0768F0220F26
:1029C000331FF901EB53FF4F208131818F5F2617B1
:1029D000370750F4982F01C0482F9417B8F291117F
:1029E00002C080E008958CE008952F923F924F92AC
:1029F0005F926F927F928F929F92AF92BF92CF928F
:102A0000DF92EF92FF920F931F93CF93DF93CDB797
:102A1000DEB76C970FB6F894DEBF0FBECDBF082FA0
:102A20006C8F4B83842F0E946308182F282F30E06F
:102A30003C8B2B8BF901EE0FFF1FEE0FFF1FE55CA8
:102A4000FB4F80819181A281B3818C839D83AE8372
:102A5000BF8380918500882319F01092850081E062
:102A6000802B9091AF03992319F01092AF0391E05E
:102A7000982B81E02C813D814E815F81203434454B
:102A80004948510508F080E02091AE03821721F0FB
:102A90008093AE0381E001C080E0982B9A878091FB
:102AA00004048823C1F0992391F081E10E94471F1B
:102AB0008CE00E94471F8AE00E94471F8B81882379
:102AC00011F08DE001C08EE00E94471F08C08AE02F
:102AD0000E94471F03C59A85992309F4FFC4AB815F
:102AE000A1110BC080913204882329F01092320486
:102AF00081E0809327040E94D823812F0E94B4078D
:102B0000F82E0E942D098C01B9E0FB9EF0011124E2
:102B1000E15DF24FD49081E00D2C01C0880F0A9442
:102B2000EAF720E0E22FF0E0EE0FFF1FEA50F34F4C
:102B30000590F491E02D9281982319F090859111E0
:102B400005C0211102C021E0EDCF20E0F092530436
:102B5000D0922B02ED2CF12CEE0CFF1C41E060E03A
:102B6000C701CD960E94CE12682F8D2D0E947D2226
:102B700080934E04F8013796249140E060E0C7014D
:102B8000CC960E94CE1280932C0280910F02F80105
:102B9000E80FF11D8491EAE08E9FC001112490930B
:102BA0003F0280933E0281E00E9463080E94B407C6
:102BB0008F8B0E949907811103C0F090530402C0CB
:102BC000E4E0FE2E8F2D0E942D099C878B87909329
:102BD000AD038093AC0329E0F29EF00111249F0124
:102BE000225D324FC9010196FC011491F9018491D3
:102BF00081703B81232F30E03E872D87412F50E0AD
:102C00005E8B4D8BF90152E1159FE00DF11D1124F2
:102C1000E65FF84F249130918500323031F491E035
:102C2000211190E0092F082703C001E0311100E0D5
:102C300091E0211190E041E0311140E0A42EA8265E
:102C4000A926223011F47A2C01C0792E8091090432
:102C5000882361F06B816623B1F1EB85FC853496A6
:102C6000849181FB882480F8912C05C08B81882376
:102C700051F1812C912C81E0012E01C0880F0A9422
:102C8000EAF760E0E62FF0E0EE0FFF1FEA50F34FA7
:102C90000590F491E02D9181982319F09085911180
:102CA00005C0611102C061E0EDCF60E08F2D0E9490
:102CB000992299878887143019F1163009F447C092
:102CC000111142C02DC060914E048F2D0E94992297
:102CD0009987888782E1AD89BE898A9FF0018B9FA1
:102CE000F00D1124E75FF84F849185FF0CC0209010
:102CF000740030907500B8EB2B1ABBE03B0A05C09E
:102D0000212C312C06C0212C312C143049F5812C7A
:102D1000912C50EEC52E5EE2D52EE12CF12C2AC06E
:102D2000EB81212C312CE11117C004C0111112C00C
:102D3000812C912C2091AA0030E0AAE0B0E00E9402
:102D4000083B6B017C0116C0212C312C05C0212CC5
:102D5000312C0AC0812C912CC12CD12C76010AC0B7
:102D6000163021F7812C912C4DE4C42E48E0D42E4E
:102D7000E12CF12C772041F0F094E094D094C094B1
:102D8000C11CD11CE11CF11C2091AA0030E040E0E4
:102D900050E0AA2029F066EF7FEF8FEF9FEF04C08D
:102DA0006AE070E080E090E00E94F23A688F798FEC
:102DB0008A8F9B8FA885B9851C96ED91FC911D97F4
:102DC0001A962D913C911B9740A151A162A173A12C
:102DD000420F531F611D711D48585341610971090C
:102DE00015962D913C91169713964D905C901497E3
:102DF0002115310549F4DB01CA01840D951DA11D82
:102E0000B11D1130E9F534C0612C712CC901A0E06D
:102E1000B0E08F87988BA98BBA8B840D951DA61D6A
:102E2000B71DB695A79597958795840F951FA61FF3
:102E3000B71F112321F0113009F427C421C0EB8101
:102E4000E1111EC0A11003C0D301C20104C08F85CF
:102E50009889A989BA89840F951FA61FB71F288D45
:102E6000398D4A8D5B8D820F931FA41FB51F08C03B
:102E7000288D398D4A8D5B8D821B930BA40BB50B6E
:102E8000892801F5AA2019F0319421943108A10173
:102E9000330C660B770B841B950BA60BB70BAA2084
:102EA00041F0F094E094D094C094C11CD11CE11C7A
:102EB000F11C2C013D014C185D086E087F086C0167
:102EC0007D0103C0412C512C320180916C00909106
:102ED0006D00A0E0B0E0885D9242AD4ABD4FC80EE3
:102EE000D91EEA1EFB1E002341F0F094E094D0941A
:102EF000C094C11CD11CE11CF11CC092A403D0924F
:102F0000A503E092A603F092A7033B8131113FC0D5
:102F1000EB89FC89E15BFB4FE0818E2F90E046E07E
:102F2000E49FF0011124E65FF24F249130912F04C9
:102F3000231729F020932F0421E02093270426E073
:102F4000289FF001299FF00D1124E55FF24F81E0E9
:102F50009491911101C080E090912E04891729F07D
:102F600080932E0481E080932704E0912C025AE0A4
:102F7000E59FF0011124E550F94F849190918E0363
:102F8000891729F080938E0381E080932704809134
:102F90008F03882329F010928F0381E08093270408
:102FA000EB85FC858D859E85E80FF91F70968491D1
:102FB0009091A303891729F08093A30381E0809364
:102FC0002704E885F985878190913004891729F0D5
:102FD0008093300481E08093270481E0133009F06E
:102FE00080E090919003891729F08093900381E00D
:102FF0008093270460917600F4E66F9FB00111245E
:1030000080E00E947623882321F0F8940E944A23CE
:1030100078948091780090917A00891771F080936C
:103020007A0080E70E94482481E80E94E123809191
:103030007A000E94E1230E944524809106048111B8
:1030400003C08091770001C081E09091A7008917AB
:1030500029F08093A70081E080932704E091AC03DE
:10306000F091AD03349684918695817090913104EE
:10307000891729F08093310481E08093270480919F
:103080009103882329F01092910381E08093270413
:103090006091AA0024E6629FB001112481E00E94A1
:1030A0007623882321F0F8940E944A237894809113
:1030B000100281110DC00E949907811109C08F89EA
:1030C0000E942D090496FC0184918295817001C0B3
:1030D00081E090912D04891729F080932D0481E0DF
:1030E00080932704F09066002091670030E0A8EC00
:1030F000B0E00E94083B6C507E4F8F4F9F4F28EEF0
:10310000822E23E0922EA12CB12CA50194010E94C5
:10311000D03A122F2F2D30E0A8ECB0E00E94083BEF
:103120006C507E4F8F4F9F4FA50194010E94D03A63
:1031300090911A02911308C090911902291304C0AA
:10314000909118022917B1F0F89410931A02209365
:1031500019022093180210921C0410921B04109262
:103160001D04120F110F115020F080E00E94C125A4
:10317000FACF78948091AC039091AD03F8949C01C0
:10318000285F3F4F30938400209383000C969093E8
:103190008200809381007894E091510426E0E29FC0
:1031A000F0011124EE5DF24F849190912C04891767
:1031B00029F080932C0481E0809327048F890E945A
:1031C0002D090496FC01849183FB882780F9F894EB
:1031D00080932304789420917D0080919203281796
:1031E00011F12093920330E0A8EEB3E00E94083B77
:1031F0002CE330E040E050E00E94D03ACA01B9012F
:103200000E942414EE24E3948E010F5F1F4F29E4E3
:1032100035E040E10E94B1138F5F88608EBD8981E7
:103220009A819BBD8ABD80911302F89490913304DA
:10323000891720F4109235041092340480933304DB
:1032400078949091720080917300F894990F909304
:103250008C03880F80938B03789490911102809156
:103260001202F89490938D03813049F030F082304F
:1032700049F0833051F481E006C084E004C010922C
:10328000360403C083E0809336047894A0917000E4
:1032900010917100F894FAE0AF9FD001112428EC4E
:1032A00030E00E94173B6C507E4F8F4F9F4F28EEAF
:1032B00033E040E050E00E94D03A30931C0220936B
:1032C0001B0210932004789480919303813029F09D
:1032D00081E0809393038093270480916F00909105
:1032E0001E02891749F180931E02811108C0F894CB
:1032F000579856981092B70410921D021CC0E3EA2A
:10330000F4E087EB94E011928E179F07E1F710929B
:10331000A2041092A0041092A10410929F04109293
:103320000404F89410921F02579A83E08093B70424
:1033300081E080931D027894E0916E00F0E0E55CFE
:10334000F74F249130E0A0EBB4E00E94083B0091DD
:103350009403109195032091960330919703601781
:10336000710782079307E9F06093940370939503C4
:1033700080939603909397030E942414EE24E39481
:103380008E010F5F1F4F28E130E04CE00E94B11327
:10339000811102C0599A01C059988A8180BD8981E2
:1033A00089B980916C0090916D00A0E0B0E04C0173
:1033B0005D0128ED821A22E2920A2DEAA20A2DEF7F
:1033C000B20A80929F039092A003A092A103B092B0
:1033D000A20382E14D895E89849FF001859FF00DF3
:1033E00011248D859E85E80FF91FE65FF84F8491C3
:1033F000833069F07301620177FE0CC0F094E094B1
:10340000D094C094C11CD11CE11CF11C03C0C12C80
:10341000D12C76018091990390919A03A0919B03FE
:10342000B0919C03C816D906EA06FB0609F454C0FD
:10343000C0929903D0929A03E0929B03F0929C036E
:1034400060E079EE84EA95E3A70196010E94D03A04
:1034500029013A0120FF05C091E0491A510861088D
:103460007108A7019601C301B2010E94F23AA501B9
:1034700094010E94D03A122F0E94D23B20EF3FEFDE
:103480004FE759E40E94603C6B017C01C501B40127
:103490000E94D23B9B01AC01C701B6010E94313BA7
:1034A0000E94A33B9B01AC01612F82E20E941A297A
:1034B000B301A20182E30E949229809198038111B5
:1034C0000BC060E881EB0E94000A6FE681E10E9478
:1034D000000A81E0809398030E94D8236C817D814B
:1034E0008E819F810E94C31490912B04891729F02B
:1034F00080932B0481E08093270480919D0388238F
:1035000029F010929D0381E0809327048091A40309
:103510009091A503A091A603B091A7032C813D81B2
:103520004E815F81281B390B4A0B5B0B2C833D833B
:103530004E835F838091A800813029F081E08093E1
:10354000A8008093270440909F035090A0036090B0
:10355000A1037090A20360E079EE84EA95E32C81E8
:103560003D814E815F810E94D03A69017A0120FF3E
:1035700005C031E0C31AD108E108F1082C813D8172
:103580004E815F81C701B6010E94F23AA301920108
:103590000E94D03A122F0E94D23B20EF3FEF4FE71C
:1035A00059E40E94603C6C837D838E839F83C301BA
:1035B000B2010E94D23B9B01AC016C817D818E8166
:1035C0009F810E94313B0E94A33B9B01AC01612F74
:1035D0008AE10E941A29B701A6018AE20E94922973
:1035E00080919E0381110BC060E281EB0E94000A72
:1035F0006FE480E10E94000A81E080939E034A8587
:103600004423D1F05C8D511103C06B816623A1F07E
:10361000E091AC03F091AD038B81E80FF11D709642
:1036200084919091A303891729F08093A30381E0EB
:10363000809327040E94D82381E09B81911101C0CF
:1036400080E090913204891729F08093320481E060
:10365000809327040E94D8236C960FB6F894DEBF9F
:103660000FBECDBFDF91CF911F910F91FF90EF90D3
:10367000DF90CF90BF90AF909F908F907F906F9092
:103680005F904F903F902F900895A1100AC0892815
:1036900009F018CCD301C201840F951FA61FB71FD4
:1036A000F6CB892809F00ECC8F859889A989BA892B
:1036B000840F951FA61FB71FE7CBA9010C94B9145F
:1036C000FF920F931F93CF93DF9300D000D01F92F0
:1036D000CDB7DEB7F82E2F5D30403595279545ECF8
:1036E0005EE4249FC001259F900D349F900D11240E
:1036F0009F938F9385E298E09F938F9384E08F93BD
:103700008E010F5F1F4F1F930F936D830E94FB2548
:103710006D818F2D0E945A240E94E8240FB6F894E0
:10372000DEBF0FBECDBFF80181918F01882319F054
:103730000E94B524F8CF0E9445240F900F900F905F
:103740000F900F90DF91CF911F910F91FF900895EF
:10375000F89480911D02813071F482E08093ED0332
:1037600020EA31E03093EC032093EB0380931D02B9
:10377000569A0E94952E78940895CF93C82F0E9450
:10378000630891E020915204213009F090E01F92EB
:103790009F93E091530429E0E29FF0011124E05D42
:1037A000F24F94911F929F931F92CF9334E0839F87
:1037B000F0011124E55CFB4F83818F9382818F930D
:1037C00081818F9380818F938DEF97E09F938F936B
:1037D0008BE28F9380EC93E09F938F930E94FB2565
:1037E0002DB73EB7215F3F4F0FB6F8943EBF0FBED7
:1037F0002DBFCF910C94B32E8091AA0090E08897B2
:1038000065E070E00E94893A7F936F9385EF97E0BF
:103810009F938F938BE28F9380EC93E09F938F9392
:103820000E94FB252DB73EB7295F3F4F0FB6F89496
:103830003EBF0FBE2DBF0C94B32E1F921F928CEE75
:1038400097E09F938F938BE28F9380EC93E09F930D
:103850008F930E94FB252DB73EB7295F3F4F0FB6D0
:10386000F8943EBF0FBE2DBF0C94B32E1F921F9233
:1038700083EE97E09F938F938BE28F9380EC93E09E
:103880009F938F930E94FB252DB73EB7295F3F4F33
:103890000FB6F8943EBF0FBE2DBF0C94B32ECF933E
:1038A000DF93C091B803D091B903A091B603B09152
:1038B000B70320916B008091690090916A00C8174E
:1038C000D907E8F030E00E94083B24E630E040E011
:1038D00050E00E94D03A2C173D07A0F4BE01620FC1
:1038E000731FEAE0E69FC001E79F900D1124BE011F
:1038F000621B730B0E94BC3A6A50710905C060E0FC
:1039000070E002C06EE170E077277F936F938AEDDD
:1039100097E09F938F938BE28F9380EC93E09F933C
:103920008F930E94FB252DB73EB7295F3F4F0FB6FF
:10393000F8943EBF0FBE2DBFDF91CF910C94B32EF4
:103940000E946308E82FF0E0E05DFD4F81E0908188
:10395000911101C080E01F928F9381ED97E09F93BA
:103960008F938BE28F9380EC93E09F938F930E94D1
:10397000FB252DB73EB7295F3F4F0FB6F8943EBFEA
:103980000FBE2DBF0C94B32E0E946308E82FF0E009
:10399000E15BFB4F81E09081911101C080E01F92BB
:1039A0008F9387EC97E09F938F938BE28F9380ECBC
:1039B00093E09F938F930E94FB252DB73EB7295F1D
:1039C0003F4F0FB6F8943EBF0FBE2DBF0C94B32EE1
:1039D000CF93DF932091B2033091B303AFEFB0E008
:1039E0000E94083B2FEF33E040E050E00E94D03AC5
:1039F000822F90916500E92FF0E0D09164006D2F47
:103A000070E0DF01A61BB70BC09163004C2F50E0A4
:103A1000E40FF51F30E02A173B0714F4892F8D1BA4
:103A2000282F30E0E217F30714F4892F8C0F282F8A
:103A300030E02A1B3B0BEEE1E29FC001E39F900DBB
:103A40001124640F751F0E94893A77277F936F9323
:103A50008EEB97E09F938F938BE28F9380EC93E0B4
:103A60009F938F930E94FB252DB73EB7295F3F4F51
:103A70000FB6F8943EBF0FBE2DBFDF91CF910C94CF
:103A8000B32E1F9281E08F9386EB97E09F938F93E5
:103A90008BE28F9380EC93E09F938F930E94FB25A2
:103AA0002DB73EB7295F3F4F0FB6F8943EBF0FBE0C
:103AB0002DBF0C94B32E80910404811182E01F92DB
:103AC0008F938FEA97E09F938F938BE28F9380EC95
:103AD00093E09F938F930E94FB252DB73EB7295FFC
:103AE0003F4F0FB6F8943EBF0FBE2DBF0C94B32EC0
:103AF0008BEA97E09F938F938BE28F9380EC93E018
:103B00009F938F930E94FB250F900F900F900F9023
:103B10000F900C94B32E0E949907811182E01F929E
:103B20008F9383EA97E09F938F938BE28F9380EC40
:103B300093E09F938F930E94FB252DB73EB7295F9B
:103B40003F4F0FB6F8943EBF0FBE2DBF0C94B32E5F
:103B500080917D001F928F938BE997E09F938F93C5
:103B60008BE28F9380EC93E09F938F930E94FB25D1
:103B70002DB73EB7295F3F4F0FB6F8943EBF0FBE3B
:103B80002DBF0C94B32E862F062E000C990B9F93FD
:103B90006F9385E997E09F938F938BE28F9380ECEF
:103BA00093E09F938F930E94FB252DB73EB7295F2B
:103BB0003F4F0FB6F8943EBF0FBE2DBF0C94B32EEF
:103BC000CF93DF9300D0CDB7DEB7AC014296FC01B6
:103BD000859195918238F1E09F07D9F09A012C5E8A
:103BE0003F4FF901A591B591109759F02D913C9156
:103BF0003A83298342E0BE016F5F7F4F0E94CC1061
:103C000008C0FA0176960590F491E02D60810E943B
:103C1000CF110F900F90DF91CF9108958F929F92C7
:103C2000AF92BF92CF92EF920F93CF93DF9300D0DA
:103C3000CDB7DEB749015A012E2DEC2C2A8309831A
:103C40000E945A240FEF2A814981C501B4010E94C4
:103C5000D1290F900F90DF91CF910F91EF90CF90DE
:103C6000BF90AF909F908F9008958F929F92AF9248
:103C7000BF92CF92DF92EF920F931F93CF93DF9378
:103C8000C82FD62F5901F9013B9614913297049110
:103C90003196E4903A968590959032973797849133
:103CA00083FF06C0D4011996ED91FC911A9707C0C5
:103CB00082FF12C0D4011796ED91FC9118978D9157
:103CC0009C9140A151A162A173A19A01AB01280F5F
:103CD000391F411D511D22C0F90178960590F491BC
:103CE000E02D8114910459F00995F401208131816E
:103CF0005B016C01A20EB31EC11CD11C0DC0099545
:103D0000F50176960590F491E02D20815B016C0120
:103D1000A20EB11CC11CD11CA60195011C3F09F4C7
:103D20004CC0A8F41A3F51F11B3F09F05FC081E07D
:103D300090E0A0E0B0E05C016D0104C0AA0CBB1CE7
:103D4000CC1CDD1C2A95D2F7A601950134C01E3F7C
:103D500059F030F1232B242B252B19F444E558E09E
:103D600034C048E558E031C0232B242B252B19F40F
:103D70004CE458E02AC040E558E027C0F901EE5B6A
:103D8000F74F2491822F90E0A0E0B0E09C01AD01BC
:103D900092E0220F331F441F551F9A95D1F70BC095
:103DA000F901E55CF74F249130E0A0EBB4E00E940C
:103DB000083B9B01AC01C12C1AC0F901EE0FFF1F9B
:103DC000EE0FFF1FAF01455D574F802F8E196D2FEE
:103DD0008C0FDF91CF911F910F91EF90DF90CF90DB
:103DE000BF90AF909F908F900C94B914C12E6D2FFF
:103DF0008C2F0E940E1EDF91CF911F910F91EF909B
:103E0000DF90CF90BF90AF909F908F900895CF9309
:103E100080912E02811102C0B29908C0F8941092CC
:103E20001F0210922D027894C1E001C0C0E0809181
:103E30001E028823A9F080910D02882311F0849B33
:103E40000AC031E020E080911F02811101C030E002
:103E5000832F922F02C081E090E0892B09F0C1E00E
:103E60000E949907811109C0C11107C081E090919A
:103E70002E02911104C080E002C0C1E081E0F894FC
:103E8000C0932504809324047894CF910895E82F5B
:103E9000F0E0ED55FB4F81E0808308958F929F9273
:103EA000AF92BF92CF92DF92EF92FF921F93CF9388
:103EB000DF9300D0CDB7DEB7182F6B017A01FA017E
:103EC0001082CE0101960E94582C813009F43CC02A
:103ED00048F0E981FA81823009F4ADC2833009F4F7
:103EE00051C0B1C280910704882339F010920704B1
:103EF000412F60E081E00E94F51480911D02813025
:103F000009F0BDC2E3EAF4E080E090E0F89421918A
:103F10002223A1F0FC01E251FC4F6081FC01ED5530
:103F2000FB4F10827894880F991FFC01EE55FE4FCD
:103F30000190F081E02D812F0995A1C2789401961E
:103F40008431910519F79BC22091140290910604C7
:103F5000211109C0992321F01092060480930704CF
:103F60001092050470C291116EC2909105049F5F7A
:103F700090930504921708F466C280930604809318
:103F8000070461C2C380D12CE12CF12CFE2CED2C56
:103F9000DC2CCC248481C80ED11CE11CF11CFE2C2D
:103FA000ED2CDC2CCC248581C80ED11CE11CF11C2D
:103FB000FE2CED2CDC2CCC248681C80ED11CE11CFF
:103FC000F11C928181812081293439F4843409F0F3
:103FD000F9C09111CDC189E02BC22134E9F48934B3
:103FE00009F0C6C19923B1F0C114D104E104F10470
:103FF00071F0F2E0CF16D104E104F10409F0B8C188
:1040000081E08093040481E10E94471FD9C010928F
:10401000040419C28FE00CC2263409F07FC0813439
:10402000D9F59923B9F1812F0E94630824E0829F7A
:10403000C0011124FC01E55CFB4F4081518162818C
:1040400073814A015B01E0E38E1AE5E79E0AA1084D
:10405000B108F0ED8F16F2ED9F06F7EEAF06F1E036
:10406000BF0620F040E355E760E070E046015701ED
:1040700020E3821A25E7920AA108B108E0ED8E1626
:10408000E2ED9E06E7EEAE06E1E0BE06E8F16A016B
:104090007B013AC08AE0CCC1823409F067C1992320
:1040A000D9F181E0111180E00E946308F4E08F9F54
:1040B000C0011124FC01E55CFB4F80819181A2814C
:1040C000B381AC01BD014053554761097109403DC1
:1040D000524D674E714020F080E395E7A0E0B0E0DC
:1040E000B701A6014053554761097109403D524D42
:1040F000674E714010F06C017D01812F0E946308B2
:10410000F4E08F9FC0011124FC01E55CFB4FC082ED
:10411000D182E282F3824EC08BE08AC12035D1F495
:10412000843509F077C0992399F02EE0C216D104A6
:10413000E104F10428F056E0C52ED12CE12CF12C3D
:104140008C2D880F880F8C0D885D8093AA0032C05B
:1041500080E16EC12D34E9F5843409F009C1992359
:1041600079F1812F0E94630820915304E0E3FDE080
:1041700090E034913F3F11F0C31629F09F5F3996CC
:104180009A30B9F701C0292FE82EF12CC701865CBF
:104190009D4F6C01BC01822F0E94E409F6019081C1
:1041A000F701EE0FFF1FEE0FFF1FEE5CFD4FE90F53
:1041B000F11D8083412F61E081E00E94F5145BC115
:1041C0008CE036C1863409F0D3C091113CC181E145
:1041D0002FC12235D9F5813409F0ABC09923C1F044
:1041E000812F0E946308E82FF0E024E0C216D1047A
:1041F000E104F10418F0C12CD12C7601E15BFB4FF6
:10420000C082412F60E081E00E94F51484E014C078
:1042100084E00EC18134A9F4992389F0812F0E9492
:104220006308E82FF0E0E05DFD4F1082412F60E071
:1042300081E00E94F51485E00E94471F1CC185E0C3
:10424000F7C0833509F094C082E0F2C0233569F4E9
:104250008D3409F08DC0992309F48AC0CD28CE2869
:10426000CF2809F085C083E0E3C02535D9F4803537
:1042700009F07EC0992309F4E6C084E6C816D1048B
:10428000E104F10420F0C12CD12C7601C3942091DB
:104290007F0030E02C9DC0012D9D900D3C9D900D28
:1042A00011241CC0243429F58E3409F061C09923EF
:1042B00009F4C9C094E6C916D104E104F10420F060
:1042C000C12CD12C7601C394D194C194D1082091F2
:1042D0007F002C9DC0012D9D900D11242091020482
:1042E00030910304820F931F909303048093020480
:1042F000AAC0243509F07DC08835D1F58091040429
:10430000992399F0C114D104E104F10471F0E2E0C1
:10431000CE16D104E104F10419F491E090932D023A
:10432000882309F490C08DE083C091E090931F0230
:10433000F7CF883559F410922D0210921F02809108
:104340000404882309F47FC08EE072C08D3481F4A8
:10435000992381F0D701C6010197A109B1090397FB
:10436000A105B10528F4C09208046DC0873571F02D
:1043700083E15EC080910804823021F0833021F017
:1043800086E056C087E054C088E052C0992379F196
:10439000F0E1CF16F7E2DF06E104F10430F09CE132
:1043A000C92E9CE0D92EE12CF12C60914E0425EF12
:1043B000C21621E0D206E104F10418F4E6E9F0E0C7
:1043C00002C0E6E8F0E08085882351F080E0E6391D
:1043D000F80729F0E658F04019F461E001C060E008
:1043E00080912B020E947D2280934E041AC082E1AC
:1043F0001FC02B3409F0BCCF833509F0B9CF992306
:10440000B1F0D701C6010497A109B109CA97A10566
:10441000B10528F084E1C82ED12CE12CF12CC092FA
:104420007D00412F61E081E00E94F5140CC081E025
:104430000E94471F08C08081F601808381E0F70158
:1044400080830E943C09E981FA81F894A091640478
:10445000B09165043597B183A08384E694E093839B
:1044600082831396FC93EE931297F0936504E09386
:104470006404789404C0812F0E94DA2FE4CF0F9057
:104480000F90DF91CF911F91FF90EF90DF90CF9031
:10449000BF90AF909F908F900895982F80ED890FD7
:1044A0008A3058F0903231F0933221F09F3521F06C
:1044B0008CE008958BE008958AE00895823041F001
:1044C000833051F0813011F084EA03C084E801C0E8
:1044D00084EC86BF8FEF0AC084E986BF80E0089530
:1044E00092E09A95F1F700C0882321F0815006B63A
:1044F00007FEF6CF81B1887F089591E001C0990F42
:104500008A95EAF7862FE82FF0E0EE0FFF1FEA50BA
:10451000F34F0590F491E02D2081292319F0208597
:10452000211106C021E0811120E0822F6213EBCF20
:104530000895E62FF0E0EE0FFF1FEA50F34F85914C
:104540009591089580933A04609339041092380449
:104550000895982F80913704811109C0892F8270A6
:1045600091FF06C08091360480958170089580E0A7
:104570000895982F8091370481110BC0892F817085
:1045800090FF08C0809136048695817091E089275C
:10459000089580E00895109235041092340408952F
:1045A000909135049C3040F480913304890F8093BE
:1045B00035048695809334040895CF93DF938091DA
:1045C000320490913004882309F45EC081E0209188
:1045D0003104211101C080E0C0E88111C0648091E4
:1045E0002F048111C06280912E048111C06191114C
:1045F000C8608091A800813009F0C46080912D04CA
:104600008111C26080912C04813009F0C160209139
:104610002B04422F50E080E090E0D0E0BA01082E59
:1046200002C0769567950A94E2F760FF05C0FC0129
:10463000E251FE4F3481D32B01968430910571F7FE
:104640008091A70090E0019780FDD46081FDD86043
:104650008091A600281708F0D26080912A04811169
:1046600001C0D16083E00E94012980E40E946510AE
:10467000CFB90E94320ADFB90E942E0A0E946E1042
:104680001DB8DF91CF91089581E0911101C080E0C4
:10469000C0E0A3CF80912804811106C08091290435
:1046A000811105C088E11EC080E090E002C081E079
:1046B00090E0FC01EE0FFF1FE75BFB4F2081318193
:1046C000FC01E95BFB4F80818F5F886195B58913A1
:1046D00005C043B550E02417350730F498E195BD87
:1046E00023BD14BC85BD089523BD0895AF92BF922C
:1046F000CF92DF92EF920F931F93CF93DF9300D06F
:10470000CDB7DEB7C82ED12C5601AA0CBB1CF501C3
:10471000ED5BFB4F808191818617970709F17183CB
:104720006083660F771F80E090E00E941C14EE24E7
:10473000E3948E010F5F1F4F29EE35E048E00E94A1
:10474000B113F894F601E95BFB4F8083F501E75B59
:10475000FB4F89819A8191838083789481E001C0A5
:1047600080E00F900F90DF91CF911F910F91EF900C
:10477000DF90CF90BF90AF90089592B39F7B8074ED
:10478000892B82BB0895282F36B331FD07C08111D4
:1047900002C091E001C092E0892F01C080E030FDAD
:1047A00006C0211102C092E001C091E0892B08955A
:1047B00080912704882321F0109227040C94DD2295
:1047C000089583B981E00C945E22EF92FF920F93DB
:1047D0001F93CF93DF931F92CDB7DEB769830E94FB
:1047E0004D2224E1829FC001112469813AE0639F38
:1047F000800D911D1124FC01EA5FF34F7F018F01B1
:10480000065F1F4FF70131967F01319785910E9416
:10481000E123E016F106B1F70F90DF91CF911F91E0
:104820000F91FF90EF900895FF920F931F93CF93F6
:10483000DF931F92CDB7DEB78E3211F0833219F4B9
:1048400096E0F92E01C0F12C69830E944D2228E1E7
:10485000829FC001112469818C012CE0629F000DB0
:10486000111D11240253154FF801EF0DF11D849114
:104870000E94E123F3948CE0F812F6CF0F90DF91C1
:10488000CF911F910F91FF90089583E00C945E22C9
:10489000CF93C82F80E00E945E22883349F0883091
:1048A00011F0803129F4C3B981E0CF910C945E22DC
:1048B000CF9108951F93CF93DF931F92CDB7DEB7AB
:1048C000982F990F890F182F110F80E769830E9485
:1048D000482487E06981861B806B0E94E123812F39
:1048E0008E700E94E123812F82958F7080610E94DB
:1048F000E1230F90DF91CF911F910C9445248F926B
:104900009F92AF92BF92EF920F931F93CF93DF933B
:104910001F92CDB7DEB7182F81E0411180E0698387
:104920000E94630824E0829FC0011124FC01E55C21
:10493000FB4F80809180A280B3806981812F0E948B
:104940005A24EE24E39405E022E048E0C501B401D6
:104950000E94D1290F90DF91CF911F910F91EF907D
:10496000BF90AF909F908F9008950F931F93CF9318
:10497000DF93805296E0899FE0011124C257D74F00
:104980008E010A5F1F4FFE01219685910E94E1234F
:10499000C017D107C1F7DF91CF911F910F910895F3
:1049A000CF93DF93C0E06C2F80E00E945A2482E70F
:1049B0000E944824D4E880E00E94E123D150D9F736
:1049C0000E944524CF5FC83071F7DF91CF910895E1
:1049D00082E70C9448242F923F924F925F926F92FD
:1049E0007F928F929F92AF92BF92CF92DF92EF927F
:1049F000FF920F931F93CF93DF93CDB7DEB72A9724
:104A00000FB6F894DEBF0FBECDBF982E862E842F32
:104A1000232B09F07EC00E94630824E0829FC0011E
:104A20001124FC01E55CFB4F7080618082818987E5
:104A300023812A8711E0682D610F892D0E945A2455
:104A40000E94E82484E3A82E8EE0B82E672D762DF0
:104A500089859A85CC24C394D12C08E0E12CFF24CD
:104A6000F394F50134965F01349725913591459182
:104A700055910E949D3A29833A834B835C836D83D1
:104A80007E838F83988729803A804B805C800530B5
:104A900049F4FF2011F083E201C08EE2612F0E94F1
:104AA000142409C0023039F4612F8EE20E941424CC
:104AB000EE24E39413C0F1E0FF120EC028E0C2160A
:104AC000D10451F0211431044104510429F4612F1F
:104AD00080E20E9414240EC0EE2031F0612F80E3AA
:104AE000820D0E94E52305C0612F80E3820D0E94A4
:104AF0001424F12C6D817E818F8198850150EFEF18
:104B0000CE1ADE0A0111ADCF0E944524115008F0E3
:104B100092CF2A960FB6F894DEBF0FBECDBFDF91BD
:104B2000CF911F910F91FF90EF90DF90CF90BF90AA
:104B3000AF909F908F907F906F905F904F903F903D
:104B40002F90089580912504811119C0809124042B
:104B5000811115C080912304882391F08091200455
:104B6000882331F080911E0490911F04892B39F421
:104B700081E090911D04911103C080E0089581E0CF
:104B80000895E0911C042E2F30E02F5F3F4F2F77C8
:104B9000332790911B049217F1F0AE2FA695A6959E
:104BA000A695E770B0E0A55FBB4FF0E0E251FE4F85
:104BB000882321F040819C91942B04C09081909592
:104BC0004C9194239C9320931C0490911D04890F75
:104BD00080931D04089580910A040895E0910A04C9
:104BE00080910A048E1711F0E82FFACFF0E0EA570F
:104BF000F74F849108952F923F924F925F926F9258
:104C00007F928F929F92AF92BF92CF92DF92EF925C
:104C1000FF920F931F93CF93DF93CDB7DEB76D97BE
:104C20000FB6F894DEBF0FBECDBFCDA8DEA88AA90F
:104C30009BA99D8B8C8B198A188A8CA990E09B8BE1
:104C40008A8B7E0127E3E20EF11C212C312C2101FD
:104C5000A12CB12C3E014FE0640E711CF601649151
:104C6000662309F4E5C1653291F0062E000C770B3E
:104C7000CE0140960E940F30019611F41FEFD9C16A
:104C80008FEFC81AD80A9FEFA91AB90AE7CF1F8673
:104C9000F601319654913196A0E2AF8B198E1E8A9F
:104CA000B1E0B88F5B3289F03CF4503271F053328E
:104CB00099F461E06E8B0EC05D3249F0503361F4BF
:104CC00020E32F8B41E0488F05C0598F03C080E25D
:104CD0008F8B188E5591E6CF5A3211F0912C0BC064
:104CE000D7019C906F01BFEFCB1ADB0A5491F701FB
:104CF00032967F010EC06F0180ED850F8A3048F437
:104D00002AE0929E500D112420ED922E950E559181
:104D1000F2CF5E3219F5F60155915A3211F0812C1D
:104D20000CC0D7018C905491F70132967F01C601D7
:104D300002966C0190E29F8B13C06F0180ED850F8E
:104D40008A3048F4AAE08A9E500D112490ED892EF5
:104D5000850E5591F2CFB0E2BF8B02C088248A94B1
:104D60005C3661F1BCF4583634F45536ACF5583540
:104D700009F44DC052C0583609F04FC0F6015491A5
:104D8000D7012D903C90032C000C44085508F701E6
:104D900032961DC0B7016E5F7F4F533709F14CF457
:104DA0005F36A9F15037C9F5D7012D903C907B01B2
:104DB000CDC0553761F1583751F12FC0F6015491EC
:104DC000D7012D903D904D905C90F70134967F0176
:104DD000C60101966C012BC094E0E90EF11C27C0BE
:104DE000D7012D913C912115310511F422E032E0DB
:104DF000482D50E0F90180E090E08417950710F00D
:104E00007B01BCC0A191AA23D9F30196F6CFF7018B
:104E100020803180412C512C07C0F7012080318047
:104E2000032C000C44085508C70102967C01583633
:104E30008CF455360CF012CF583509F46DC024F4BB
:104E4000553409F40BCF94C0533609F490C054364E
:104E500039F18EC0503709F479C02CF4593601F17C
:104E60005F3639F085C0553789F1583709F440C0AD
:104E70007FC005E718E0930148E0C201B1010E943C
:104E80002D309C01211431044104510409F474C0F3
:104E90009E89992309F470C0F90180E3829326C0AA
:104EA00057FE14C088279927DC0182199309A409A9
:104EB000B50905E718E093014AE0BC01CD010E9465
:104EC0002D30DC01EDE2EE939D0156C005E718E0C0
:104ED00093014AE0C201B1010E942D309C01F98D7D
:104EE000FF2309F449C0FC01298D22939F0144C08E
:104EF00005E718E0930140E1C201B1015D8F0E9416
:104F00002D309C015D8D2114310441045104A1F127
:104F10004E89442389F113C004E618E0930140E16F
:104F2000C201B1015D8F0E942D309C015D8D211465
:104F300031044104510401F16E896623E9F0F9015D
:104F400031975083319780E38083D0CFC101A0E0B7
:104F5000B0E004E618E0930140E1BC01CD010E94FD
:104F60002D309C0184E0982E80E38F8B05C0522D5C
:104F70005E879E01225F3F4F862D821B8E8A881599
:104F800008F48E8B988D9923D1F0892DAF890A2F43
:104F9000AA0F110B9A944E89481788F4B801CE01D4
:104FA00040962B8F3C8F0E940F302B8D3C8D0196AD
:104FB00009F464CEEFEFAE1ABE0A892DEBCF89015A
:104FC00020E030E0482D50E0C501820F931FD8014A
:104FD0006D918D01611105C0B88D5C01B1113ECE9E
:104FE00023C024173507C4F770E0CE0140962B8FFD
:104FF0003C8F4A8F5D8F0E940F302B8D3C8D4A8DE8
:105000005D8D019609F43ACE2F5F3F4FDDCF60E210
:1050100070E0CE0140960E940F309A94019609F4F8
:105020002DCEFFEFAF1ABF0A2E89291580F316CEB9
:105030001A2D60E070E0CE0140960E940F30812F63
:105040006D960FB6F894DEBF0FBECDBFDF91CF9146
:105050001F910F91FF90EF90DF90CF90BF90AF9096
:105060009F908F907F906F905F904F903F902F9088
:105070000895089508950895CF93DF939091520471
:10508000913019F4C6EFD1E002C0CCEFD1E00E941C
:105090005A240E94E8248991882319F00E94B5249B
:1050A000FACFDF91CF910C9445244091530499E0BD
:1050B000499FA00111244D5C524F0C94B9144091AA
:1050C000510496E0499FA00111244D5D524F0C946C
:1050D000B91490914D04992319F045E05DE002C0A8
:1050E00040E05DE00C94B914442319F04DEF5CE00E
:1050F00002C04AEF5CE00C94B9141F93CF93DF9386
:105100001F92CDB7DEB7182F81E0411180E069838F
:105110000E9463080E94B40729E0829FC001112405
:10512000AC014D5C524F6981812F0F90DF91CF917F
:105130001F910C94B9141F93CF93DF931F92CDB797
:10514000DEB7182F80E069830E946308E82FF0E043
:10515000E15BFB4F408186E0489FA0011124445F42
:10516000524F6981812F0F90DF91CF911F910C9445
:10517000B914CF93DF93C82FD62F60914E0480913E
:1051800053040E949922FC01468557856D2F8C2F70
:10519000DF91CF910C94B9140F931F93CF93DF93AA
:1051A00000D0CDB7DEB789839A830E94E824898135
:1051B000082F9A81192FF8010F5F1F4F85918823BF
:1051C00019F00E94B524F7CF0F900F90DF91CF9187
:1051D0001F910F910C944524CF93DF931F92CDB76D
:1051E000DEB749830E945A244981442319F082E0A2
:1051F0009EE002C089E19EE00F90DF91CF910C9478
:10520000CC289091BC049EB9E82FF0E0E854FB4F05
:1052100080818DB98FB1089583E00E94012980E8D3
:105220000E94651086E08FB90E942E0A0E946E10BF
:105230001DB808958F929F92AF92BF92CF92DF9246
:10524000EF92FF92CF93C82FC62E49015A01CA018F
:10525000B9010E94D23B20EF3FEF4FE759E40E9493
:10526000313B20E030E040E053E40E94603C0E948B
:10527000A33B9B01AC01D12CE12CF12C87E0CC0CA1
:10528000DD1CEE1CFF1C8A95D1F782E0D81AE108DC
:10529000F108C20ED31EE41EF51E97E0880C991C7F
:1052A000AA1CBB1C9A95D1F76FEF7FEF8FE090E0BF
:1052B0000E94F23A861A970AA80AB90A80EC0E945C
:1052C00048248C2F0E94E1238FEF0E94E1238FEF6F
:1052D0000E94E123C701B6016627772783709927CB
:1052E0000E94E1238D2D0E94E1238C2D0E94E12359
:1052F000C501B401662777278F709927806F0E94B8
:10530000E123892D0E94E123882D0E94E123CF9182
:10531000FF90EF90DF90CF90BF90AF909F908F90D5
:105320000C944524CF92DF92EF92FF92CF93C82F37
:105330006A017B0184E0C81AD108E1088EEFF80AFF
:1053400087E0CC0CDD1CEE1CFF1C8A95D1F780ECAD
:105350000E9448248C2F0E94E12380E00E94E123D8
:1053600081E00E94E123C701B60166277727837099
:1053700099270E94E1238D2D0E94E1238C2D0E940C
:10538000E12380E00E94E12380E00E94E12380E0AD
:105390000E94E123CF91FF90EF90DF90CF900C948B
:1053A00045244F925F926F927F928F929F92AF921D
:1053B000BF92CF92DF92EF92FF920F931F93CF9302
:1053C000DF93CDB7DEB729970FB6F894DEBF0FBED7
:1053D000CDBF2B013C01922E802E1AE01E19842F86
:1053E0008F77F82EE12EE81A49870E94E824498534
:1053F00047FF13C077FE0CC08DE20E94B524709465
:10540000609450944094411C511C611C711C03C059
:105410008BE20E94B52400E001C001E0A12EB12C76
:10542000E11608F04AC0CE2CD12CF601EE0FFF1F7A
:10543000EE0FFF1FE05DF14F25913591459155919C
:10544000C301B2010E949D3A29833A834B835C8356
:105450006D837E838F83988749805A806B807C80A0
:105460008F1008C0002311F080E201C08EE20E947C
:10547000B52406C09F1004C08EE20E94B52411C05E
:10548000013079F48FEFC81AD80ACA14DB044CF43F
:10549000411451046104710421F480E20E94B52496
:1054A00005C080E3840D0E94B52400E04D805E803D
:1054B0006F807884E394FA94B3CF29960FB6F8946A
:1054C000DEBF0FBECDBFDF91CF911F910F91FF9037
:1054D000EF90DF90CF90BF90AF909F908F907F9094
:1054E0006F905F904F900C944524EF92FF920F9332
:1054F0001F93CF93DF93C82FD62FF090A900009170
:105500005804109159040E945A242F2D30E0D801DC
:105510000E94083B2FEF33E040E050E00E94D03A79
:10552000CA01B901772788279927E12C0FEF21E0DD
:1055300043E00E94D1296D2F84E08C0F0E945A24F1
:1055400088E89DE0DF91CF911F910F91FF90EF9040
:105550000C94CC281F920F920FB60F9211242F9308
:105560003F934F935F936F937F938F939F93AF93EB
:10557000BF93EF93FF930E94952EFF91EF91BF9100
:10558000AF919F918F917F916F915F914F913F91DB
:105590002F910F900FBE0F901F901895CF93DF9310
:1055A000209164043091650424563440A9F0E091C0
:1055B0006604F0916704A081B181C281D381B9836F
:1055C000A8831396DC93CE9312973596DC01ED9366
:1055D000FC9387E090E002C080E090E0DF91CF9103
:1055E00008951F920F920FB60F921124AF92BF929F
:1055F000CF92DF92EF92FF921F932F933F934F939F
:105600005F936F937F938F939F93AF93BF93EF932A
:10561000FF93CF93DF9300D0CDB7DEB71CB190914D
:10562000B704923009F4A3C018F49130F1F124C109
:10563000933019F0943061F01FC1812F90E00E94E7
:10564000CD3C8093C4048B3309F416C184E012C1AD
:10565000812F90E00E94CD3C8093C3048B3309F4EA
:10566000E0C09091C4049B3491F4893581F482E0C8
:105670008093B7041092C2041092BE041092BF042B
:105680001092C0041092C1041092BD04F5C081E0D4
:105690008093B7041092C2041092BE041092BF040B
:1056A0001092C0041092C104E7C0E12FF0E0F0971F
:1056B000EA30F10508F59093C2042091BE043091C0
:1056C000BF044091C0045091C104AAE0B0E00E9420
:1056D0001E3B6F01FF0FEE08FF08DC01CB018C0DB4
:1056E0009D1DAE1DBF1D8093BE049093BF04A0936B
:1056F000C004B093C104C0C01B3309F0BDC0CE01CB
:1057000001960E94CE2A892B09F4B3C0E981FA815F
:105710008091C4048083E981FA818091C3048183EC
:10572000E981FA818091C20482838091BE049091C4
:10573000BF042091C0043091C10433832483958336
:105740008683359783E08483A0916804B0916904CF
:10575000B183A08388E694E0938382831396FC93BD
:10576000EE931297F0936904E093680482C01111DC
:1057700004C081E08093BD047FC01B3309F44DC099
:1057800081E08093C204C090BE04D090BF04E0903A
:10579000C004F090C104C114D104E104F10469F41F
:1057A000103359F41092A10410929F041092A20495
:1057B0001092A00480E00E94592EA0909E04B12C6B
:1057C000D501A156BB4FF501EF55FB4F9C91808150
:1057D000981778F289E1C816D104E104F10448F67B
:1057E000D701C6010196A11DB11D8093BE049093FF
:1057F000BF04A093C004B093C104812F90E00E9425
:10580000CD3C99E19A9DF0019B9DF00D1124E45946
:10581000FB4FEC0DFD1D80832FC08091BD048823BC
:1058200021F081E08093B60424C08091C2048823D3
:10583000E9F04091BE045091BF046091C0047091A2
:10584000C104423051056105710598F080919E04B4
:1058500090E0FC01EF55FB4F4083FC01E156FB4F0C
:1058600021E020830E94712E80E001C081E00E942F
:10587000592E83E08093B7040F900F90DF91CF9162
:10588000FF91EF91BF91AF919F918F917F916F9118
:105890005F914F913F912F911F91FF90EF90DF907B
:1058A000CF90BF90AF900F900FBE0F901F901895A4
:1058B000CF93DF93F89420916804309169042856BF
:1058C0003440B9F0E0916A04F0916B04A081B18199
:1058D000C281D381B983A8831396DC93CE931297A8
:1058E00078949F012B5F3F4FDC012D933C93848183
:1058F00002C0789480E0DF91CF9108954F925F923B
:105900006F927F928F929F92AF92BF92CF92EF92BF
:105910000F93CF93C42F96E0899F30011124822EDC
:10592000912CA12CB12C262F30E0D3010E94173BE3
:10593000A50194010E94D03A29012C2F30E0D30117
:105940000E94173BA50194010E94D03A5901C0E082
:105950008C2F90E08415950588F4A816B90611F4EB
:105960008E2D01C0802F0E94E123CF5FF1CFA816BA
:10597000B90651F48E2D0E94E123CF5F8C2F90E069
:1059800086159705A0F302C08C2DF5CFCF910F910E
:10599000EF90CF90BF90AF909F908F907F906F903F
:1059A0005F904F900895CF92DF92FF920F931F93D5
:1059B000CF93DF93182F062FF42E6901CAE8DDE09C
:1059C000FE0134968491811311C031968491802315
:1059D00069F03397A591B59196014F2DCE010196AF
:1059E000FC016491FE018491FD0109952696FEE07B
:1059F000C230DF0729F7DF91CF911F910F91FF9000
:105A0000DF90CF9008951F93CF93DF93182FC1E0BD
:105A1000D0E001C0CC0F6A95EAF720E030E0482FD3
:105A20006C2F81E00E94D32C20E030E0412F6C2FBE
:105A300082E0DF91CF911F910C94D32C4F925F9213
:105A40006F927F928F929F92AF92BF92CF92DF928E
:105A5000EF92FF920F931F93CF93DF931F92CDB7D7
:105A6000DEB7F82ED62E442309F48FC020915404BB
:105A700030915504AFEFB0E00E94083B2FEF33E0C8
:105A800040E050E00E94D03A122FA090B803B090AE
:105A9000B903A091B603B091B70320916B00809138
:105AA000690090916A00A816B906E8F030E00E94FB
:105AB000083B24E630E040E050E00E94D03A2A154E
:105AC0003B05A0F4B501620F731FEAE0E69FC00139
:105AD000E79F900D1124B501621B730B0E94BC3A25
